:020000040800F2
:1000000000200020F90F0008F50F0008F50F000888
:1000100000000000000000000000000000000000E0
:10002000000000000000000000000000F50F0008C4
:100030000000000000000000F50F0008D90B0008C8
:10004000F50F0008F50F0008F50F0008F50F000880
:10005000F50F0008F50F0008F50F0008F50F000870
:1000600000000000F50F0008F50F0008F50F00086C
:10007000F50F0008F50F0008F50F0008F50F000850
:10008000F50F00080000000000000000F50F000858
:1000900000000000F50F0008F50F0008F50F00083C
:1000A000F50F0008F50F0008F50F0008450E0008D1
:0800B000B90F0008F50F00086C
:1000B800002243088B4274D303098B425FD3030A9F
:1000C8008B4244D3030B8B4228D3030C8B420DD3B2
:1000D800FF22090212BA030C8B4202D31212090240
:1000E80065D0030B8B4219D300E0090AC30B8B427E
:1000F80001D3CB03C01A5241830B8B4201D38B032C
:10010800C01A5241430B8B4201D34B03C01A5241D0
:10011800030B8B4201D30B03C01A5241C30A8B4213
:1001280001D3CB02C01A5241830A8B4201D38B02FE
:10013800C01A5241430A8B4201D34B02C01A5241A2
:10014800030A8B4201D30B02C01A5241CDD2C30914
:100158008B4201D3CB01C01A524183098B4201D390
:100168008B01C01A524143098B4201D34B01C01A7B
:10017800524103098B4201D30B01C01A5241C308F3
:100188008B4201D3CB00C01A524183088B4201D362
:100198008B00C01A524143088B4201D34B00C01A4E
:1001A8005241411A00D20146524110467047FFE7BA
:1001B80001B5002000F0F0F802BDC0460029F7D0D4
:1001C80076E7704703460B437FD4002243088B42EF
:1001D80074D303098B425FD3030A8B4244D3030BC6
:1001E8008B4228D3030C8B420DD3FF22090212BA8B
:1001F800030C8B4202D31212090265D0030B8B4207
:1002080019D300E0090AC30B8B4201D3CB03C01AF0
:100218005241830B8B4201D38B03C01A5241430BCB
:100228008B4201D34B03C01A5241030B8B4201D3BB
:100238000B03C01A5241C30A8B4201D3CB02C01A26
:100248005241830A8B4201D38B02C01A5241430A9E
:100258008B4201D34B02C01A5241030A8B4201D38D
:100268000B02C01A5241CDD2C3098B4201D3CB0134
:10027800C01A524183098B4201D38B01C01A5241E3
:1002880043098B4201D34B01C01A524103098B42E7
:1002980001D30B01C01A5241C3088B4201D3CB00D2
:1002A800C01A524183088B4201D38B00C01A5241B5
:1002B80043088B4201D34B00C01A5241411A00D265
:1002C80001465241104670475DE0CA0F00D04942CE
:1002D800031000D34042534000229C4603098B423E
:1002E8002DD3030A8B4212D3FC22890112BA030AC6
:1002F8008B420CD3890192118B4208D38901921148
:100308008B4204D389013AD0921100E08909C309CC
:100318008B4201D3CB01C01A524183098B4201D3CE
:100328008B01C01A524143098B4201D34B01C01AB9
:10033800524103098B4201D30B01C01A5241C30831
:100348008B4201D3CB00C01A524183088B4201D3A0
:100358008B00C01A5241D9D243088B4201D34B00BB
:10036800C01A5241411A00D20146634652415B10FD
:10037800104601D34042002B00D5494270476346DE
:100388005B1000D3404201B5002000F005F802BD23
:100398000029F8D016E770477047C046F0B58BB013
:1003A80000F0FAFB00F080F900F0DCF9032000F01F
:1003B800A1FA00F05DFC0A2000F018FC9C4800F04F
:1003C800D4FC9C4800F0D1FC9B4800F0CEFC984837
:1003D80000F0CBFC00F0C0FA00F034FD00F0BAFBEE
:1003E800964801F009F9032400F0CEFB944800F088
:1003F80053FE002808D100F0C7FB914800F07AFEB0
:10040800002813D08F480DE08F4800F0AEFCFA208A
:10041800013C4000E4B200F0E9FB002CE4D100F01C
:10042800B3FB8A4800F0A1FC002703E0884800F0ED
:100438009CFC012700F0D4FB039000F0D1FB049052
:1004480000F0CEFB079000F0CBFB0023059006934D
:1004580000F0C6FB0400002F00D1BBE0FA2103988E
:10046800890000F0CDFB061E08D0754F380001F05A
:1004780035F8002800D094E037000394002206AB3A
:10048800DA8100F099FD002800D0C0E06B4DAB8800
:10049800834217D00521286800F0B2FB002811D04C
:1004A8000E2606ABF61832002800654901F0CBF895
:1004B8003388002B06D0022000F098FB318865486D
:1004C80000F0ECFC5E4B64211B7A042B01D0FA216E
:1004D8004900049800F094FB061E07D0069B002BE9
:1004E80000D09FE000F0ECF906960494FA210798F2
:1004F800C90000F085FB002850D0574B504D1B78A1
:10050800002B4AD0554800F030FC554E698901232C
:100518000A225448009600F02FFCA98901230A22D8
:100528005148009600F028FCE98901230A224F4827
:10053800009600F021FC4E4B298A0A224D48009370
:10054800012300F019FC1E23E95E4B4B0A224B489D
:100558000093012300F010FC2023E95E484B0A2297
:1005680048480093012300F007FC2223E95E0A2291
:1005780001234548009600F0FFFB2423E95E0A2288
:1005880001234248009600F0F7FB414BE98C012219
:1005980000934048002300F0EFFB079400F0F4FAC2
:1005A80056E7380000F0CCFD0730C0B2072804D861
:1005B8008523C340DB0700D55EE7374800F0D5FB4D
:1005C80022220021354801F001F900234F373B7002
:1005D800059403943249059800F012FB071E00D1D8
:1005E8004CE700F0D1FA164800F056FD002804D177
:1005F800134800F07FFD002804D0002700F0C4FA5B
:1006080005943BE7274800F0B0FB0394F6E700F0B9
:10061800DDFC060000F0E4FA31000200074800F0B3
:10062800F3FF2EE700F051F90023049406935DE7E9
:10063800081C00082E1C0008411C000800000020AF
:1006480068000020BD1C00087E1C0008681C00080B
:100658009F1C000827000020B7000020F91C000894
:10066800231D0008021D0008091D0008101D0008B0
:100678001D1D0008171D0008311D0008271D000852
:10068800461D0008391D00084B1D0008501D0008B4
:100698005A1D0008551D0008D31C000872000020D0
:1006A80088130000E41C00088022284B52001968B7
:1006B80010B50A4380211A60254AC9001868084203
:1006C80036D1013A002AF9D1012040421FE08021A9
:1006D80010684900014311601A681E490A401A60EF
:1006E8008022920419681142FCD11B4ADA608022E8
:1006F800196852040A4380211A60154A8904186847
:10070800084205D1013A002AF9D1DDE7002010BDE1
:10071800072299689143053A0A439A6010220C4BC4
:100728000E4908681042F1D1013B002BF9D1CBE703
:10073800072404210A4A1068A04301431160116884
:1007480021400429C3D00820BFE7C046001002405A
:10075800A0860100FFFFFFFE0208005008100240BB
:100768000020024003224F4B30B5596B0F20114334
:1007780059635B6BA023DB05196881431960052168
:1007880018680143F0201960596891435960596904
:100798000A435A611A6882431A60A02219681143F1
:1007A80019600C215C688C435C609C6884439C6085
:1007B8009C6822439A60DA688243DA604022D868EB
:1007C8000243DA601A6A384802401A628822186AB4
:1007D800520102431A621A68344802401A608022A1
:1007E80018685200024310201A605A6882435A60FF
:1007F8005A6982435A611A682D4802401A60A02239
:100808001C68920414431C60C0245D6864012C4376
:100818005C609C6804409C609C6822439A60DA682B
:10082800C0240240DA60A022D86852040243DA6089
:100838005A6A204802405A62CC22586AD2020243BD
:100848005A621D4B1A688A431A60042219680A43BF
:1008580002211A605A688A435A605A698A435A615F
:100868001A6816490A401A60A02218681202104332
:1008780018605868A043586098680840986098685D
:1008880002439A60DA680A40DA608022D968D201A5
:100898000A43DA601A6A1202120A1A621A6A1A6299
:1008A80030BDC04600100240FF00FFFFFFFCFFFF05
:1008B800FFFF3FFCFF0FF0FF00040050FF0FFFFF9A
:1008C800A0231022DB059A617047A0238022DB0554
:1008D80052039A61704700000222014B9A617047E7
:1008E800000400508022024B92029A617047C04671
:1008F80000040050A023C022DB0592029A61012265
:10090800104200D09A610222104200D09A617047CA
:100918001022074B00209969114208D0D969033881
:100928000A43DA6180225968D2010A435A60704743
:1009380000580040064B074A1168084205D1013BA0
:10094800002BF9D10120404270470020FCE7C04647
:10095800881300001858004080220D4BD203D96B31
:100968001143D963D96BD96A0A43DA62DA6A094949
:100978000A40DA620122084B196891431960074955
:1009880019610021196019680A431A607047C04646
:1009980000100240FFFFBFFF005800401F193290AF
:1009A800F8B5A024E4052368104E8027334023605F
:1009B800802309252268DB03134323603F010120BC
:1009C800A76100F013F98023013D1B050120A361F5
:1009D800EDB200F00BF9002DF1D12368334023600C
:1009E800802322681B0413432360F8BDFFFF3FFFE9
:1009F800012370B51D4C5B42E361A36906000D003D
:100A08001B0404D5FFF7CCFF0A2000F0EFF860685C
:100A1800174B76001840174B30430343636080231D
:100A280062689B01134302206360FFF783FF00287D
:100A380002D00320404270BDFFF76AFF0028F8D1BA
:100A48002B0AA3620230FFF775FF0028F1D1FFF7E8
:100A58005FFF0028EDD1EDB2A5622030FFF76AFFF5
:100A68002023E2691343E361E5E7C04600580040EC
:100A780000F800FD00000202F7B50E001D0001920B
:100A8800002A5DD0002B5BD001272E4C7F42E76106
:100A98004200636800922C4A02201340009A1343D4
:100AA8002A4A134380226360636892011343636098
:100AB800FFF740FF002802D0032040423FE0FFF745
:100AC80027FF0028F8D1330AA3620230FFF732FF6C
:100AD8000028F1D1FFF71CFF0028EDD1F6B2A6627D
:100AE8002030FFF727FF2023E2691343E361002842
:100AF800E2D1143000F07AF8E7616368124A019E87
:100B080013402A041343009A75191343104A1343D8
:100B18008022636063689201134363600420FFF7D7
:100B280009FF0028C8D1636A33700136AE42F5D197
:100B38002030FFF7FFFE2023E2691343E361FEBD87
:100B48000420BAE70058004000F800FD0000020247
:100B580000040002084B094A1A60094A1A60042274
:100B68005A60FA2292009A600322D9681142FCD195
:100B7800044A1A607047C04600300040CCCC0000E0
:100B880055550000AAAA0000014B024A1A60704796
:100B980000300040AAAA0000C0210A480A4B0B4AAC
:100BA8004360136A09061B021B0A0B4313620023E6
:100BB800836007330360136A1B021B0A194311621F
:100BC8007047C04610E000E0FFF9000000ED00E0CB
:100BD800024A1368013313607047C046D4000020EE
:100BE800014B18687047C046D4000020034A1168BA
:100BF80013685B1A8342FBD37047C046D4000020B9
:100C0800034B1B681B1A00208B4240417047C046AB
:100C1800D4000020F0B5002405000E0085B0A042E5
:100C280006D130234C700B700134200005B0F0BDA4
:100C380028000A21FFF7C2FA2700303101ABD95545
:100C480028000A21FFF734FA01342F00E4B2050026
:100C5800092FEDD8320001AB1B1931198A4202D194
:100C680000233355E1E7013B187810700132F5E7AE
:100C780080220F4BD201196CC6200A438B211A64BB
:100C880000221B6C0B4B89001A60D96080215A60C6
:100C98009A600D321A60084A8000135809061B0230
:100CA8001B0A0B43135080231B0513607047C04673
:100CB800001002400038014000E100E080210B4AAA
:100CC80030B5D3690B420CD0094B0A489D885C8823
:100CD800A54207D09988415C91629A880132D2B2C4
:100CE8009A8030BD13688B431360FAE700380140DF
:100CF800EC010020EE0000200200F0B500280ED024
:100D080000240E4E0E4DA2B2914206D9FF276B88E1
:100D180001333B40AF88BB4203D1002A07D1100002
:100D2800F0BD6A88075D6B80B7540134EBE7802318
:100D38000449086803430B60F1E7C046EE00002051
:100D4800EC010020003801400223002110B5FF33D8
:100D5800425C002A07D001319942F9D1802149002B
:100D6800FFF7CAFF10BD89B2FAE710B5002801D015
:100D7800FFF7EAFF10BD0000F0B50F0016001C00D9
:100D880089B0002A4AD0032B48D8FFF7EEFF31007C
:100D98003800FFF7FDFA05000191002F04DA00285A
:100DA80002D12348FFF7D0FFEB17E818584005A9F0
:100DB800FFF730FF002302AA0C3213543D409D4236
:100DC80002DA1B48FFF7C0FF05A8FFF7BDFF002C9C
:100DD80021D01848FFF7B8FF019BA100DA179B182C
:100DE8005340154A02AD885831005843FFF760F95F
:100DF8002900FFF70FFF30260023211A03AA994282
:100E08000EDC00235118DEB2B0420CD800231000CB
:100E18001355FFF799FF0E98FFF7A7FF09B0F0BD2C
:100E2800D6540133EBE7EE5CCE540133EBE7C04612
:100E3800611D0008631D0008681D000810B5FFF754
:100E48003DFF10BD80220E4B9202D96BC7200A438A
:100E5800DA630022DB6B0B490B4B80001A60D96008
:100E68005A609A602D321A60084BD2321958914351
:100E7800BF3A0A431A50802252051A607047C0468A
:100E8800001002400B1A00000044004000E100E09E
:100E9800014A138A53827047DA000020F0B5040033
:100EA8000D0087B0002832D0FFF7F2FFFA260023A2
:100EB800B6000293029BB3422BD3FFF70DFD00232C
:100EC800254F3D800393039BB34226D363190193B7
:100ED800019B224D9C4230D100244026EB693342CD
:100EE8002DD00023FA2404936400049BA3422CD33E
:100EF800FFF7F8FC00230593059BA34229D30E2393
:100F08002A6A13432B6200233B80FFF7C1FF07B017
:100F1800F0BD029B01330293CCE7039B0133D1E779
:100F28000136330501D1FFF72FFE8022EB6913420A
:100F3800F6D023780134AB62CAE70026F5E701341E
:100F48002305CBD1FFF720FEC8E7049B01330493A8
:100F5800CBE7059B0133CEE7D800002000440040D2
:100F6800104A10B5D3699B0607D50F4B546A1988E8
:100F780000290AD01988013919800E23D16919422C
:100F880002D0116A0B43136210BD0F2007490B8A68
:100F980001330340488A9842EFD0088A0B820C54E8
:100FA800EBE7C04600440040D8000020DA000020EB
:100FB80010B5FFF7D5FF10BD034B188A5B8AC01A1E
:100FC8000F2318407047C046DA000020064B002067
:100FD800598A1A8A914206D00F215A8A985C5A8AED
:100FE80001320A405A827047DA000020FEE700000A
:100FF80010B5094A094B0A498B4207D30021094B0E
:10100800094A934205D3FFF7C9F9FEE701CA01C3AC
:10101800F2E702C3F5E7C046781D0008000000208B
:101028000000002000000020F40100200378054A99
:10103800DB43DBB24178D35C4B40DBB2D05CC0B25F
:101048007047C0460819000802004E321378042B76
:1010580003D904230372080070470133DBB213700D
:10106800052BF8D1F5E773B5032504004D4301AE10
:10107800451923783000337063787370FFF7D6FF13
:10108800A378984204D10334AC42F2D1002076BD53
:1010980002204042FBE7000010B504008CB0002895
:1010A80023D06C22002100F091FB002364202372DE
:1010B800FFF79CFD0E4930236A466B20FFF7DCFCE6
:1010C800011E04D02000FFF7BFFF0CB010BD102197
:1010D8006846FFF7C8FF002802D002214942F1E71D
:1010E800012323724E342080EFE704204042ECE7CE
:1010F80014D0000070B5051E1CD0037A012B01D056
:10110800042B1AD121216B20FFF772FC041E06D094
:1011180001002800FFF798FF0400200070BD32206E
:10112800FFF764FD02232B72FFF75AFD28604E3546
:101138002C80F2E704246442EFE70524FBE7000073
:10114800F0B5040097B0002800D1B1E1037A9A1EE7
:10115800012A00D9AFE1022B07D112490068FFF735
:101168004FFD002801D0032323720AAD0E49032343
:101178002A006B20FFF780FC011E06D02000FFF735
:1011880063FF0500280017B0F0BD2B880FAF3B8028
:101198003800FFF74BFFAB786E78984206D00221F3
:1011A8004942EBE760EA000002020000012E00D08D
:1011B80083E1C0211B2389003A006B20FFF75CFC08
:1011C800011EDBD109213800FFF74DFF0028E6D1C9
:1011D80020001B223900513000F03EFBBA490F2392
:1011E8006B200BAAFFF748FC011EC7D105210BA8ED
:1011F800FFF739FF051ED2D13B880AAA0393BB89A2
:10120800B248DBBA009323239B181A785B78B0495D
:101218001B02134309937B8A0AAADBBA0493292386
:101228009B181A785B781B021343DBBA9C463B8BEE
:101238000293039B1A18531E9A41009B07925A184F
:10124800531E9A410B00634408925A1E9341049A14
:101258005218511E8A411A40029B01921E18731E91
:101268009E419C4A039BF6B2934200D107E11722A4
:101278005BBA06930AABD218137852780AA91202FD
:101288001A431D235B1819785B78F8881B020B43F7
:101298005BBA52BA40BA05932100079F0A318F778B
:1012A800089F019BCF7727000B37FB77069B0137F9
:1012B800FE776381059B4A808880029A8548CB80A7
:1012C8000023824200D053BA814A8B83009B9B182B
:1012D8005A1E9341009A5B421340E383019B002B03
:1012E80002D1019B9C460493049B7B4A638463461A
:1012F800A384009B0020934204D0099B1421D8BAF0
:10130800FEF760FF0BA90B88724A2084934200D134
:10131800BAE00AAA107AD2790002104342BA0492BB
:101328000D22CF8889890AA849BA8C4612181078E4
:1013380052785BBA120202437FBA52BA21004B823A
:10134800049BCF828B8263464B8300238B832300CD
:101358000A8350331A780A31002A45D0039B5D4826
:10136800834218D123002C339B7F002B13D0A38DED
:101378006381E38D4B80238E8B80638ECB80A38E1D
:101388000B81E38E4B81238F8B81638FCB81A38F5E
:101398000B8201238B77009B4F4883420CD123009B
:1013A8002C33DB7F002B07D0A31CDB8F8B82231D04
:1013B800DB8FCB820123CB77019B002B0FD123003E
:1013C8002D33DB7F002B0AD0A31DDB8F01200B837D
:1013D80023000833DB8F4B8323000B33D877029B22
:1013E8003C48834256D01600230028331B78002B34
:1013F8000CD06289002A09D1A289002A06D1E28983
:10140800002A03D1238A5A1E9341DBB222002932D3
:101418001278002A09D01E27E05F002846D1202034
:10142800225E501E82411343DBB222002A32127818
:10143800002A09D02220225E002A40D12420225EE0
:10144800501E82411343DBB2002E02D0E28C002AE8
:1014580001D1002B08D0200022222C3000F0FCF90A
:101468002300012250331A70230001224F331A70CF
:10147800FFF7B6FB002360604E34237082E62A0033
:1014880028000695059507E700231F001A009C46CB
:10149800049353E7200023002E30C67F0C33002E20
:1014A800A2D0408B88830120D8779CE71300BCE743
:1014B80004256D4266E60525FBE70725F9E7002EBA
:1014C800C9D03300C2E7C046160300000100FFFF81
:1014D8000180FFFFFFFF0000FF7F000037B50028F5
:1014E80001D100203EBD037A023BDBB2012BF8D8C4
:1014F80001AD03232A006B200949FFF7BDFA002834
:10150800EFD168462B886C780380FFF78FFDAB78A6
:10151800C31A601E5A425341424250411840E1E703
:1015280002020000F7B5061E019106D00024FF252F
:101538002348019AA3B29A4200D8FEBD335D2149DF
:1015480058400200A8432A401202000A10431E4BCA
:101558001E4A8C460240184000091D4B12010243E6
:1015680013400A4092089B0013431A0019491A486D
:101578000A4003405B0857001F433A0A174B5200C2
:101588009B5A3F027B401A00AB432A409BB212028F
:101598001B0A13430C4F0D4A01341A403B4067465F
:1015A80012011B0913430A4A1A403B4092009B0848
:1015B800134319401840490040080843B9E7C0469A
:1015C800FFFF0000CCCCFFFFF0F0FFFF0F0F000083
:1015D8003333000055550000AAAAFFFF081A000877
:1015E80070B50C000500FFF79DFF28552D19000A5E
:1015F80002346870A0B270BD10B5002803D068220C
:10160800002100F0E3F810BD70B504000E001500CD
:10161800002817D08388002B11D005210068FFF718
:10162800EFFA00280BD00023A380A371A3881F2BF7
:1016380003D8E2180133D671A380256002E0A379AC
:10164800002BF3D070BDF0B504000D00160091B06A
:10165800002833D0002931D0002A2FD0002313804E
:101668008188052927D9C779012F24D1023989B260
:101678000730FFF757FFA388E3189A795B791202BE
:101688001343984217D1210022002000237A2831E1
:101698000193033B083203912930BB4210D98023C0
:1016A800D777019A5B4213430B7003210770023806
:1016B800FFF796FF30800023A380A37111B0F0BD1F
:1016C800E37A1900237B1B020B4369465BBA0B8143
:1016D8000B899C46013B152B0BD980230321D77717
:1016E800019A5B421343039A13700170200027305C
:1016F800DEE7A07A637A0002184340BA80B2152860
:1017080004D86346C318013B152B0CD90123D377A2
:101718008022019B52421A43230028331A70022266
:1017280003215A70E2E76A8905AB1A80AA892F005B
:101738005A80EA890A379A802A8A4000DA80EA8B36
:10174800C0181A812A8C5A816A8C9A81AA8CDA81EB
:10175800EA8C1A826A8A5A82AA8A9A82EA8ADA827F
:101768002A8B1A836A8B5A832A000B32F97FD27F1D
:10177800490092000A43B97F01270A4329000C3126
:10178800C97FC9000A439A832A7A4E35DA832A78B0
:1017980025001A8400225A84230008350299EF771D
:1017A800019F203549000E920F922F7069702A33DD
:1017B800058801322F0A92B21F705D700230023321
:1017C8009445F5D1033189B290E7000030B50D009A
:1017D8001400010083070BD00300032204E00D70FE
:1017E800013C0131134204D00133002CF7D130BD44
:1017F8000300032C22D9FF222A40110289180A0467
:1018080089180F2C26D922091201D218196059609B
:101818009960D96010339342F8D10F222240944640
:101828000C222240644609D0624692089200D218DF
:1018380002C39342FCD10324624614401A19002CB7
:10184800D5D01D7001339A42D1D01D7001339A4210
:10185800F7D1CCE7A446E7E7F0B5C6460D00160079
:1018680000B5032A0DD80400711E002E06D00023EF
:101878000131EA5CE25401338B42FAD180BCB846AC
:10188800F0BD032402000A43210003001140144262
:1018980032D1320004000F2E1ED91027BC462A0070
:1018A8003409013C2401A0460419A44454685C602E
:1018B80094689C60D468DC60146810321C60103333
:1018C8006345F3D10F221C000C23103532403340FE
:1018D80045441600002BC7D06B5863500431531A87
:1018E800032BF9D8032616409208013A92000435D2
:1018F8000434AD18A418B7E70400711EB7E7C04652
:1019080000316253C4F5A697B988DBEA7D4C1F2ED7
:101918004372211087B6E5D4FACB98A93E0F5C6DC7
:1019280086B7E4D5427320113F0E5D6CFBCA99A8B7
:10193800C5F4A796013063527C4D1E2FB889DAEBA7
:101948003D0C5F6EF9C89BAA84B5E6D74071221397
:101958007E4F1C2DBA8BD8E9C7F6A5940332615087
:10196800BB8AD9E87F4E1D2C02336051C6F7A49577
:10197800F8C99AAB3C0D5E6F4170231285B4E7D667
:101988007A4B1829BE8FDCEDC3F2A1900736655457
:1019980039085B6AFDCC9FAE80B1E2D34475261747
:1019A800FCCD9EAF38095A6B4574271681B0E3D237
:1019B800BF8EDDEC7B4A192806376455C2F3A09127
:1019C8004776251483B2E1D0FECF9CAD3A0B586917
:1019D80004356657C0F1A293BD8CDFEE79481B2A07
:1019E800C1F0A3920534675678491A2BBC8DDEEFF7
:1019F80082B3E0D1467724153B0A5968FFCE9DACE7
:101A0800000005800F800A001B801E001400118052
:101A1800338036003C00398028002D802780220042
:101A2800638066006C00698078007D807780720032
:101A3800500055805F805A004B804E004400418022
:101A4800C380C600CC00C980D800DD80D780D20012
:101A5800F000F580FF80FA00EB80EE00E400E18002
:101A6800A000A580AF80AA00BB80BE00B400B180F2
:101A7800938096009C00998088008D8087808200E2
:101A8800838186018C01898198019D8197819201CA
:101A9800B001B581BF81BA01AB81AE01A401A181BA
:101AA800E001E581EF81EA01FB81FE01F401F181AA
:101AB800D381D601DC01D981C801CD81C781C2019A
:101AC800400145814F814A015B815E01540151818A
:101AD800738176017C01798168016D81678162017A
:101AE800238126012C01298138013D81378132016A
:101AF800100115811F811A010B810E01040101815A
:101B0800038306030C03098318031D831783120339
:101B1800300335833F833A032B832E032403218329
:101B2800600365836F836A037B837E037403718319
:101B3800538356035C03598348034D834783420309
:101B4800C003C583CF83CA03DB83DE03D403D183F9
:101B5800F383F603FC03F983E803ED83E783E203E9
:101B6800A383A603AC03A983B803BD83B783B203D9
:101B7800900395839F839A038B838E0384038183C9
:101B8800800285828F828A029B829E0294029182C1
:101B9800B382B602BC02B982A802AD82A782A202B1
:101BA800E382E602EC02E982F802FD82F782F202A1
:101BB800D002D582DF82DA02CB82CE02C402C18291
:101BC800438246024C02498258025D825782520281
:101BD800700275827F827A026B826E026402618271
:101BE800200225822F822A023B823E023402318261
:101BF800138216021C02198208020D820782020251
:101C08000D0A3D3D3D3D3D3D3D3D3D3D3D3D3D3D5F
:101C18003D3D3D3D3D3D3D3D3D3D3D3D3D3D3D3DEC
:101C28003D3D3D0D0A004D455254414E4920425319
:101C3800502056312E300D0A004245205041525452
:101C4800204F46204E41545552452050524F54453E
:101C5800435420544845204655545552450D0A00D2
:101C680053454E3636206E6F742064657465637410
:101C780065642E0D0A0053454E363620696E697428
:101C8800206661696C65642C207265747279696E6E
:101C9800672E2E2E0D0A0053454E3636204F4B2EFA
:101CA800205761726D696E67207570203630732E0B
:101CB8002E2E0D0A0053454E363620737461727409
:101CC800206661696C65642E0D0A0053454E3636F0
:101CD800206F66666C696E652E0D0A0053454E3698
:101CE80036207265636F6E6E65637465642E0D0AC7
:101CF800005B53454E36365D2000504D312E303A4C
:101D080000504D322E353A00504D342E303A0050A6
:101D18004D31303A002075672F6D33207C20004804
:101D2800756D69646974793A0025255248207C20CC
:101D38000054656D70657261747572653A00432070
:101D48007C2000564F433A004E4F783A00434F32BA
:101D58003A002070706D0D0A002D002E0000000062
:101D6800010000000A00000064000000E803000011
:0400000508000FF9E7
:00000001FF
