:020000040800F2
:1000000000200020450F0008410F0008410F0008A4
:1000100000000000000000000000000000000000E0
:10002000000000000000000000000000410F000878
:100030000000000000000000410F0008150C00083F
:10004000410F0008410F0008410F0008410F000850
:10005000410F0008410F0008410F0008410F000840
:1000600000000000410F0008410F0008410F000888
:10007000410F0008410F0008410F0008410F000820
:10008000410F00080000000000000000410F0008C0
:1000900000000000410F0008410F0008410F000858
:1000A000410F0008410F0008410F0008E50C00084F
:0800B000050F0008410F0008D4
:1000B80002B4714649084900095C49008E4402BCF3
:1000C8007047C046002243088B4274D303098B4211
:1000D8005FD3030A8B4244D3030B8B4228D3030C10
:1000E8008B420DD3FF22090212BA030C8B4202D3B2
:1000F8001212090265D0030B8B4219D300E0090ADA
:10010800C30B8B4201D3CB03C01A5241830B8B42E2
:1001180001D38B03C01A5241430B8B4201D34B03CB
:10012800C01A5241030B8B4201D30B03C01A524130
:10013800C30A8B4201D3CB02C01A5241830A8B42B5
:1001480001D38B02C01A5241430A8B4201D34B029E
:10015800C01A5241030A8B4201D30B02C01A524102
:10016800CDD2C3098B4201D3CB01C01A52418309B6
:100178008B4201D38B01C01A524143098B4201D3F0
:100188004B01C01A524103098B4201D30B01C01A1B
:100198005241C3088B4201D3CB00C01A5241830895
:1001A8008B4201D38B00C01A524143088B4201D3C2
:1001B8004B00C01A5241411A00D201465241104622
:1001C8007047FFE701B5002000F0F0F802BDC04617
:1001D8000029F7D076E7704703460B437FD4002207
:1001E80043088B4274D303098B425FD3030A8B42C3
:1001F80044D3030B8B4228D3030C8B420DD3FF222D
:10020800090212BA030C8B4202D31212090265D0FA
:10021800030B8B4219D300E0090AC30B8B4201D3AD
:10022800CB03C01A5241830B8B4201D38B03C01AF4
:100238005241430B8B4201D34B03C01A5241030B6B
:100248008B4201D30B03C01A5241C30A8B4201D31C
:10025800CB02C01A5241830A8B4201D38B02C01AC7
:100268005241430A8B4201D34B02C01A5241030A3E
:100278008B4201D30B02C01A5241CDD2C3098B4223
:1002880001D3CB01C01A524183098B4201D38B01A0
:10029800C01A524143098B4201D34B01C01A524143
:1002A80003098B4201D30B01C01A5241C3088B4288
:1002B80001D3CB00C01A524183088B4201D38B0073
:1002C800C01A524143088B4201D34B00C01A524115
:1002D800411A00D201465241104670475DE0CA0FEC
:1002E80000D04942031000D34042534000229C46AC
:1002F80003098B422DD3030A8B4212D3FC228901B6
:1003080012BA030A8B420CD3890192118B4208D38B
:10031800890192118B4204D389013AD0921100E0ED
:100328008909C3098B4201D3CB01C01A5241830901
:100338008B4201D38B01C01A524143098B4201D32E
:100348004B01C01A524103098B4201D30B01C01A59
:100358005241C3088B4201D3CB00C01A52418308D3
:100368008B4201D38B00C01A5241D9D243088B4229
:1003780001D34B00C01A5241411A00D201466346CC
:1003880052415B10104601D34042002B00D5494230
:10039800704763465B1000D3404201B5002000F06F
:1003A80005F802BD0029F8D016E770477047C04627
:1003B8001C2101231B04984201D3000C10391B0A8D
:1003C800984201D3000A08391B09984201D3000951
:1003D800043902A2105C40187047C04604030202A8
:1003E800010101010000000000000000F0B585B027
:1003F80000F0F0FB00F078F800F0CAF900F0C8FA55
:1004080000F0C6FB324801F023FF324C200001F017
:10041800FFF9314D314B3248AB61286500F018FCCB
:10042800280001F08FFD00F0F9FB0025070000F01F
:10043800F5FB00F0F3FB0090274801F029FE02AB22
:100448009E1D0023338000F05DFD00282FD1A38876
:10045800834215D00521206800F0F0FB00280FD05A
:10046800330020001E4A1D4901F0B4FA3388002BDE
:1004780006D0022000F0D8FB31881A4800F0B4FCFE
:100488000021154801F0AFFD6421052801D0FA21AB
:100498004900380000F0D2FB002805D0002D11D10A
:1004A800050000F023FA009F00F08CFBC1E700F084
:1004B80033FD019000F0B2FB01990200200001F029
:1004C80069FAC0E700F017FA0025009FECE7C0467C
:1004D80054000020D80000207C00002000030020E9
:1004E8000C000020FF0000208022284B52001968D1
:1004F80010B50A4380211A60254AC90018680842C5
:1005080036D1013A002AF9D1012040421FE080216A
:1005180010684900014311601A681E490A401A60B0
:100528008022920419681142FCD11B4ADA608022A9
:10053800196852040A4380211A60154A8904186808
:10054800084205D1013A002AF9D1DDE7002010BDA3
:10055800072299689143053A0A439A6010220C4B86
:100568000E4908681042F1D1013B002BF9D1CBE7C5
:10057800072404210A4A1068A04301431160116846
:1005880021400429C3D00820BFE7C046001002401C
:10059800A0860100FFFFFFFE0208001008100240BD
:1005A80000200240802210B5074B084C52022169F6
:1005B80008001040114200D110BD013B002BF6D1BC
:1005C80001204042F8E7C046A08601000020024012
:1005D80070B50600FFF7E6FF00282FD1194C6369B4
:1005E800834203DA184BA360184BA360FC25AD00C7
:1005F80025616069164BF600184002233043034317
:100608006361802362695B0213436361FFF7CAFF7A
:100618006369104A1340636100280CD123691A00EA
:100628002A402B4201D022610838802362691B06C8
:100638001343636170BD01204042F6E70120404248
:10064800F8E7C0460020024023016745AB89EFCD9B
:1006580004E0FFFF05E0FFFFF7B5050000910192F8
:10066800430737D1FFF79EFF002836D11C4C63693A
:10067800834203DA1B4BA3601B4BA360FC260127B4
:10068800B600266163693B436361009B2B60019B55
:100698006B60FFF787FF6369BB436361002817D16D
:1006A80023691A003240334206D12B68009A9342DC
:1006B80004D00820404205E02261FAE76B68019AFD
:1006C8009342F6D1802362691B0613436361FEBD22
:1006D8000120EFE704204042F9E70120FBE7C0468C
:1006E8000020024023016745AB89EFCDF0B585B006
:1006F80003930AAB1D880BAB07001C881F200CABAB
:100708001E8801910292FFF763FF00282ED13A005C
:1007180017491848FFF7A0FF002827D1019A144964
:100728001548FFF799FF002820D1029A104913486D
:10073800FFF792FF002819D1039A0D491048FFF7D7
:100748008BFF002812D12A0009490E48FFF784FFC1
:1007580000280BD1220006490B48FFF77DFF00282F
:1007680004D1320002490948FFF776FF05B0F0BD11
:100778003412ADDE00F8000808F8000810F8000888
:1007880018F8000820F8000828F8000830F80008D1
:1007980003224F4B30B5596B0F20114359635B6BE4
:1007A800A023DB05196881431960052118680143F6
:1007B800F020196059689143596059690A435A6190
:1007C8001A6882431A60A0221968114319600C2123
:1007D8005C688C435C609C6884439C609C68224392
:1007E8009A60DA688243DA604022D8680243DA60A5
:1007F8001A6A384802401A628822186A520102436B
:100808001A621A68344802401A6080221868520036
:10081800024310201A605A6882435A605A69824318
:100828005A611A682D4802401A60A0221C68920476
:1008380014431C60C0245D6864012C435C609C68A0
:1008480004409C609C6822439A60DA68C024024095
:10085800DA60A022D86852040243DA605A6A204853
:1008680002405A62CC22586AD20202435A621D4B95
:100878001A688A431A60042219680A4302211A6016
:100888005A688A435A605A698A435A611A681649EB
:100898000A401A60A02218681202104318605868AB
:1008A800A0435860986808409860986802439A6026
:1008B800DA680A40DA608022D968D2010A43DA602D
:1008C8001A6A1202120A1A621A6A1A6230BDC046FD
:1008D80000100240FF00FFFFFFFCFFFFFFFF3FFC8F
:1008E800FF0FF0FF00040050FF0FFFFFA0231022AE
:1008F800DB059A617047A0238022DB0552039A61C9
:10090800704700000222014B9A61704700040050B2
:100918008022024B92029A617047C0460004005040
:100928001022074B00209969114208D0D969033871
:100938000A43DA6180225968D2010A435A60704733
:100948000058004070B5060000F068F90125040061
:100958003221200000F072F9002802D00120404224
:1009680070BD084B1B681E42FAD100F057F9031BF3
:1009780005485843E841054B9842E9D800F022F968
:10098800E6E7C04618580040CDCCCCCC99999919C7
:1009980080220D4BD203D96B1143D963D96BD96A25
:1009A8000A43DA62DA6A09490A40DA620122084B24
:1009B800196891431960074919610021196019687C
:1009C8000A431A607047C04600100240FFFFBFFF8D
:1009D800005800401F193290F8B5A024E405236898
:1009E800114E802733402360802309252268DB03CA
:1009F800134323603F010120A76100F015F980230C
:100A0800013D1B050120A361EDB200F00DF900F0D6
:100A1800D9F8002DEFD12368334023608023226862
:100A28001B0413432360F8BDFFFF3FFF012370B58C
:100A38001D4C5B42E361A36906000D001B0404D54D
:100A4800FFF7CAFF0A2000F0EFF86068174B76003E
:100A58001840174B304303436360802362689B014F
:100A6800134302206360FFF76DFF002802D00320C4
:100A7800404270BDFFF754FF0028F8D12B0AA3624B
:100A88000230FFF75FFF0028F1D1FFF749FF002888
:100A9800EDD1EDB2A5622030FFF754FF2023E269C3
:100AA8001343E361E5E7C0460058004000F800FD45
:100AB80000000202F7B50E001D000192002A5DD069
:100AC800002B5BD001272E4C7F42E7614200636810
:100AD80000922C4A02201340009A13432A4A1343D7
:100AE800802263606368920113436360FFF72AFF03
:100AF800002802D0032040423FE0FFF711FF002802
:100B0800F8D1330AA3620230FFF71CFF0028F1D1A5
:100B1800FFF706FF0028EDD1F6B2A6622030FFF7F6
:100B280011FF2023E2691343E3610028E2D1143066
:100B380000F07AF8E7616368124A019E13402A04BC
:100B48001343009A75191343104A134380226360B4
:100B580063689201134363600420FFF7F3FE0028E3
:100B6800C8D1636A33700136AE42F5D12030FFF741
:100B7800E9FE2023E2691343E361FEBD0420BAE7DE
:100B88000058004000F800FD0000020200040002C6
:100B9800084B094A1A60094A1A6004225A60FA2264
:100BA80092009A600322D9681142FCD1044A1A6063
:100BB8007047C04600300040CCCC000055550000BE
:100BC800AAAA0000014B024A1A6070470030004090
:100BD800AAAA0000C0210A480A4B0B4A4360136ABC
:100BE80009061B021B0A0B431362002383600733A9
:100BF8000360136A1B021B0A194311627047C0463F
:100C080010E000E0FFF9000000ED00E0024A136880
:100C1800013313607047C0466C030020014B18680D
:100C28007047C0466C030020034A116813685B1ABA
:100C38008342FBD37047C0466C030020034B1B68FC
:100C48001B1A00208B4240417047C0466C030020AD
:100C5800014B18607047C0468803002080220E4B65
:100C6800D201196CC6200A431A6400221B6C0B4976
:100C78000B4B80001A60D96080215A609A602D322F
:100C88001A60084A090613581B021B0A0B43135023
:100C980080231B0513607047001002400B1A0000E8
:100CA8000038014000E100E010B50A4CE3699B06FA
:100CB80007D5094B616A1868002802D0C9B200F04C
:100CC80021FC0E23E2691A4202D0226A13432362EE
:100CD80010BDC046003801408803002010B5FFF75A
:100CE800E3FF10BD80220E4B9202D96BC7200A4346
:100CF800DA630022DB6B0B490B4B80001A60D9606A
:100D08005A609A602D321A60084BD23219589143B2
:100D1800BF3A0A431A50802252051A607047C046EB
:100D2800001002400B1A00000044004000E100E0FF
:100D3800014A138A538270477203002070B5140069
:100D4800962203000D00D20190420DD021D89622A0
:100D58005201904208D019D89622D200904203D06E
:100D680096221201934233D1022D31D8621E012AF4
:100D78002ED8194A580819008018FFF7A3F9012D31
:100D880012D02C21022D10D114490EE09622920186
:100D9800E8E7E12212029042E6D0E12252029042B4
:100DA800E2D096221202DDE70D49023C63425C4123
:100DB80001220C4B64031D6895431D60D8605C607C
:100DC80000240A439C601A60FFF7B2FF200070BD40
:100DD80004204042FBE7C0460090D0032C160000D8
:100DE8002C14000000440040F0B504000D0087B04A
:100DF800002832D0FFF79CFFFA260023B6000293A2
:100E0800029BB3422BD3FFF77DFD0023254F3D8086
:100E18000393039BB34226D363190193019B224D8D
:100E28009C4230D100244026EB6933422DD0002368
:100E3800FA2404936400049BA3422CD3FFF768FDB3
:100E480000230593059BA34229D30E232A6A134343
:100E58002B6200233B80FFF76BFF07B0F0BD029BBE
:100E680001330293CCE7039B0133D1E70136330505
:100E780001D1FFF7A7FE8022EB691342F6D0237851
:100E88000134AB62CAE70026F5E701342305CBD16C
:100E9800FFF798FEC8E7049B01330493CBE7059B53
:100EA8000133CEE77003002000440040104A10B51B
:100EB800D3699B0607D50F4B546A198800290AD0B5
:100EC8001988013919800E23D169194202D0116A93
:100ED8000B43136210BD0F2007490B8A01330340EF
:100EE800488A9842EFD0088A0B820C54EBE7C04638
:100EF80000440040700300207203002010B5FFF783
:100F0800D5FF10BD034B188A5B8AC01A0F231840FF
:100F18007047C04672030020064B0020598A1A8A7F
:100F2800914206D00F215A8A985C5A8A01320A40A7
:100F38005A82704772030020FEE7000010B5094A84
:100F4800094B0A498B4207D30021094B094A9342AE
:100F580005D3FFF74BFAFEE701CA01C3F2E702C364
:100F6800F5E7C046B02C0008000000200C00002067
:100F78000C000020B00300200378054ADB43DBB2F5
:100F88004178D35C4B40DBB2D05CC0B27047C046FE
:100F98001429000802004E321378042B03D90423C5
:100FA8000372080070470133DBB21370052BF8D1C8
:100FB800F5E773B5032504004D4301AE45192378C1
:100FC8003000337063787370FFF7D6FFA3789842C8
:100FD80004D10334AC42F2D1002076BD0220404255
:100FE800FBE7000010B504008CB0002823D06C2269
:100FF800002101F04FF9002364202372FFF714FE4B
:101008000E4930236A466B20FFF754FD011E04D0B9
:101018002000FFF7BFFF0CB010BD10216846FFF796
:10102800C8FF002802D002214942F1E701232372B8
:101038004E342080EFE704204042ECE714D0000053
:1010480070B5051E1CD0037A012B01D0042B1AD1D0
:1010580021216B20FFF7EAFC041E06D001002800BE
:10106800FFF798FF0400200070BD3220FFF7DCFD79
:1010780002232B72FFF7D2FD28604E352C80F2E751
:1010880004246442EFE70524FBE70000F0B5040000
:1010980097B0002800D1BCE1037A9A1E012A00D932
:1010A800BAE1022B08D1FA2100684900FFF7C6FD12
:1010B800002801D0032323720AADC34903232A0061
:1010C8006B20FFF7F7FC011E06D02000FFF762FF38
:1010D8000500280017B0F0BD2B880FAF3B80380003
:1010E800FFF74AFFAB786E78984202D00221494256
:1010F800EBE7012E00D091E1C0211B2389003A00C3
:101108006B20FFF7D7FC011EDFD109213800FFF75C
:1011180050FF0028EAD120001B223900513001F08D
:10112800FFF8AA490F236B200BAAFFF7C3FC011E87
:10113800CBD105210BA8FFF73CFF051ED6D13B8874
:101148000AAA0393BB89A248DBBA009323239B18FE
:101158001A785B781B02134309937B8A0AAADBBAC5
:10116800049329239B181A785B781B021343DBBA74
:1011780005933B8B0293039B1A18531E9A41009BBD
:101188000792944A99184B1E994108911100059BA2
:101198009B185A1E9341049A5218511E8A411A40AC
:1011A800029B01921E18731E9E418B4A039BF6B246
:1011B800934200D114E117225BBA9C460AABD218BD
:1011C800137852780AA912021A431D235B1819785A
:1011D8005B78F8881B020B435BBA52BA40BA069395
:1011E8002100079F0A318F77089F019BCF7727003F
:1011F8000B37FB7763460137FE776381069B4A808E
:101208008880029A7448CB800023824200D053BA67
:101218008B83724A009B0020934203D00A21180056
:10122800FEF7DAFF019BE083002B02D1019B0493B8
:101238000593049B694A6384059B0020A384009B53
:10124800934204D0099B1421D8BAFEF7C5FF0BA915
:101258000B88614A2084934200D1C6E00AAA107A1A
:10126800D2790002104342BA04920D22CF888989AC
:101278000AA849BA8C461218107852785BBA12023A
:1012880002437FBA52BA21004B82049BCF828B82E1
:1012980063464B8300238B8323000A8350331A78D9
:1012A8000A31002A45D0039B4B48834218D12300BA
:1012B8002C339B7F002B13D0A38D6381E38D4B8050
:1012C800238E8B80638ECB80A38E0B81E38E4B8124
:1012D800238F8B81638FCB81A38F0B8201238B7725
:1012E800009B3E4883420CD123002C33DB7F002B2C
:1012F80007D0A31CDB8F8B82231DDB8FCB820123BE
:10130800CB77019B002B0FD123002D33DB7F002BE4
:101318000AD0A31DDB8F01200B8323000833DB8F4A
:101328004B8323000B33D877029B2B48834262D030
:101338001600230028331B78002B0CD06289002A62
:1013480009D1A289002A06D1E289002A03D1238A79
:101358005A1E9341DBB2220029321278002A09D0A2
:101368001E27E05F002852D12020225E501E8241B5
:101378001343DBB222002A321278002A09D0222035
:10138800225E002A4CD12420225E501E8241134343
:10139800DBB2002E02D0E28C002A01D1002B08D04B
:1013A800200022222C3000F0BBFF23000122503302
:1013B8001A70230001224F331A70FFF72FFC002305
:1013C80060604E34237084E60202000016030000B9
:1013D8000100FFFF0180FFFFFFFF0000FF7F00000B
:1013E800AC462A0028000695FAE600231F001A00DA
:1013F8009C46049347E7200023002E30C67F0C3319
:10140800002E96D0408B88830120D87790E7130070
:10141800B0E704256D425CE60525FBE70725F9E7FB
:10142800002EBDD03300B6E770B5041E25D0144990
:101438006B20FFF7FBFAFFF7F1FB02260500962168
:101448002800C900FFF7FAFB00280AD02000FFF7A0
:10145800C9FD002804D0042323724E3401332370BD
:1014680070BDFFF7DBFB431B06485843F041064BB2
:101478009842E4D8FFF7A6FBE1E704204042EFE7F3
:1014880004D30000D578E9266E12830037B500280A
:1014980001D100203EBD037A023BDBB2012BF8D814
:1014A80001AD03232A006B200949FFF703FB00283D
:1014B800EFD168462B886C780380FFF75DFDAB7829
:1014C800C31A601E5A425341424250411840E1E754
:1014D8000202000070B5041E11D04822002100F05D
:1014E800D9FE012323702300002538331D701D7396
:1014F800DD81FFF793FBE0632064280070BD0420C2
:101508004042FBE770B504000D00002800D196E0CA
:10151800FFF784FB22002100E0633832137818318A
:10152800002B00D184E0012B00D189E01F2B00D9CA
:101538008CE0E6180133DBB235761370202B7ED1B0
:1015480026000B00002136361D780133491989B26F
:10155800B342F9D11D78230037331B781B022B4384
:1015680025005BBA9BB208358B4200D072E0A31C01
:10157800611CCE7FD97F42330902314349BA618069
:10158800E11CCE7F211DC97F0902314349BAA180E0
:10159800611DCE7FA11DC97F0902314349BAE1808F
:1015A800E11DCE7FE97F0902314349BA218121003B
:1015B80028310E7849780902314349BA61812100FE
:1015C8002A310E7849780902314349BAA1812100AC
:1015D8002C310E7849780902314349BAE18121005A
:1015E8002E310E7849780902314349BA2182210007
:1015F80030310E7849780902314349BA61822100B5
:1016080032310E7849780902314349BAA182210062
:1016180034310978A175210035310978E175012146
:1016280019700323237000232064EB8700230BE049
:10163800422D04D1012325761370DB18237070BD69
:101648004D2D03D1022365761370F8E7002313703C
:101658000133F3E704232370EB8F0133E5E7000040
:1016680010B5041E32D0FFF7D9FA2378022B09D01F
:101678001849206CFFF7E2FA002819D1FFF7A2FAFF
:10168800002010BD1449E06BFFF7D8FA0028EFD00E
:10169800042323702300002238331A7022000832F2
:1016A800D38F01339BB2D387092BE1D901200EE0F8
:1016B8002378032BE2D10133237023000022443323
:1016C8001A700834E38F0133E387D7E704204042D8
:1016D800D7E7C04688130000B80B0000002800D0E8
:1016E80002307047031E01D0443003781800704759
:1016F800002802D0002344300370704700280AD025
:10170800012302000370002338320830137013736A
:10171800C3871800704704204042FBE7F7B5061E50
:10172800019106D00024FF252348019AA3B29A42CA
:1017380000D8FEBD335D214958400200A8432A4025
:101748001202000A10431E4B1E4A8C4602401840E3
:1017580000091D4B1201024313400A4092089B00E6
:1017680013431A0019491A480A4003405B085700F6
:101778001F433A0A174B52009B5A3F027B401A00FC
:10178800AB432A409BB212021B0A13430C4F0D4A6B
:1017980001341A403B40674612011B0913430A4AA9
:1017A8001A403B4092009B081343194018404900D7
:1017B80040080843B9E7C046FFFF0000CCCCFFFF54
:1017C800F0F0FFFF0F0F0000333300005555000005
:1017D800AAAAFFFF142A000870B50C000500FFF73D
:1017E8009DFF28552D19000A02346870A0B270BDFB
:1017F80010B5064B82701B78037080235B420B4345
:1018080043700321FFF7E8FF10BDC0460800002021
:1018180070B5002878D08A220021920000F03AFDA5
:10182800444B45491B688B4206D1444B1B685A1EE2
:10183800F62A01D8424A1370424B43481B688B4230
:101848001AD1424B1A68531C16D096240523E4017A
:10185800A24210D059D89624033B2401A2420AD0B0
:10186800962401336401A24205D096240133E40092
:10187800A24200D1033B0370354B364C1B688B42A8
:1018880004D1354B1B68022B00D82370334B344DE1
:101898001B688B4205D1334B1B685A1E012A00D89E
:1018A8002B70314B1B688B4208D1304B304A1B6878
:1018B8001E00643E964201D82E4A13802E4B1B68A8
:1018C8008B4208D12D4B2A4A1B681E00643E964263
:1018D80001D82B4A13802B4B1B688B4208D12A4B0B
:1018E800234A1B6819006439914201D8274A13809A
:1018F8000378013BDBB2072B18D8254A9B00985880
:101908002A782178FFF71AFA70BDE1240723240208
:10191800A242B0D0E12401336402A242ABD09624A3
:10192800043B2402A242A6D10233A4E796208001F8
:10193800E6E7C04600F800083412ADDE04F80008F7
:101948000800002008F80008070000200CF800082C
:1019580010F80008AE03002014F8000818F8000872
:10196800060000201CF8000820F8000824F80008E9
:10197800AC2600000400002028F800082CF8000815
:101988000200002030F8000834F8000800000020A9
:10199800142C000870B504000E001500002817D09C
:1019A8008388002B11D005210068FFF747F900282C
:1019B8000BD00023A380A371A3881F2B03D8E218A0
:1019C8000133D671A380256002E0A379002BF3D000
:1019D80070BD0000F0B5744C0600A5440D000592DA
:1019E8000693002800D187E0002900D184E0002B6D
:1019F80000D181E00023069A13808188052978D9CF
:101A08006A4CC27923789A4273D1023989B2073075
:101A1800FFF784FEB18873189A795B791202134331
:101A2800984266D1337A0793062B00D094E00729B1
:101A38005FD93700B07A757A327B0002F37A28438F
:101A4800120240BA317B1A4380B252BAF03805917B
:101A580093B27189273707285FD8FEF729FB04500E
:101A680055595E60686F5A1EF62A07D90322062167
:101A78003800FFF7BDFE069B18803AE04B4A13700A
:101A8800330022780833DA770622300020331A70C0
:101A98005D7071850599273019711100FFF79CFE5B
:101AA800069B1880424B207805931B78013BDBB2DC
:101AB800072B4BD83F4A9B0099583F4F3F4D3F88D3
:101AC8003F4C2B78227802973E4F3F8801973E4F34
:101AD8003F880097FEF70AFE059B1B78013BDBB2A7
:101AE800072B36D8334A9B0098582A782178FFF775
:101AF80025F90023B380B371344B9D44F0BD5A1EC1
:101B0800072AB3D82A4ABAE72D4A022BB7D9ADE734
:101B18005A1E012AAAD8294AB1E70222A7E7643B3C
:101B28002B489BB28342A1D8274B1A80A8E7643B75
:101B380027489BB2834299D8224BF6E7643B244856
:101B48009BB2834200D991E71B4BEEE796218901AE
:101B5800B3E796208001C8E7079B0122033B012BCE
:101B68000ED8337BF27A1B0213436A465BBA13859D
:101B7800138D184A0993013B9BB2934204D903225F
:101B880030000799273074E7B37A717A1B020B4348
:101B98005BBA9BB20893934204D809995B18013B3E
:101BA800934219D90222EBE784F7FFFF08000020CF
:101BB80007000020142C0008000000200600002068
:101BC800AE03002002000020040000207C08000072
:101BD800AC2600001504000013AC00212000BE4A0A
:101BE80000F058FB2B0050331B78002B00D10DE17F
:101BF8006B89BA4A2380AB896380EB89A3802B8ADF
:101C0800E380EB8B23812B8C63816B8CA381AB8C62
:101C1800E381EB8C23820023E15AD1520233122B49
:101C2800FAD10022AE4B1A70AE4B01321A70002264
:101C380008ABDA87059B934200D107E11B78032B99
:101C480000D003E1059B988800F01EFEA64B041CFB
:101C5800188800F019FE011C201C00F0CBFCA349D9
:101C680000F0B2FB04220DA90D900EA800F058FB5D
:101C7800059B0E9FD88800F007FE9D4B041C188812
:101C880000F002FE011C201C00F0B4FC974900F093
:101C98009BFB04220FA90F9010A800F041FB059BA5
:101CA800109C188900F0F0FD924B0B90188800F0FA
:101CB800EBFD011C0B9800F09DFC8C4900F084FBA7
:101CC8000422119011A912A800F02AFB00218A4AC7
:101CD800129B1170894A390C1780894A1180894AE8
:101CE800210C1480884A1180884A190C1380884A6C
:101CF80011800121874A1170874A08A95218176074
:101D0800852208A912015450844A53502A7A45ABB7
:101D18001A802B004E331A78F62308A95A522B0042
:101D28000B33DA7F997F92005B7F49000A431343A4
:101D38002A000C32D27FD200134346AA1380002314
:101D480008AAFA321380059A4793489349AB002AA8
:101D580000D1BCE012781A80059B0833DB8F08AAF3
:101D68000732FF3213806E4B13AC1F78F0235B00F1
:101D7800E7526C4BFA211A78F1235B00E2526A4B66
:101D880068681A78F2235B00E252684B89001A7877
:101D9800F3235B00E252FEF795F9F4235B00E0526F
:101DA800514B30001A88F5235B00E252504B079DD7
:101DB8001A88F6235B00E2524E4B2A301A88F72322
:101DC8005B00E252330000220833DA779023DB010C
:101DD80033850A9B0770590033002B331D705970E7
:101DE800089B5B00E31834002D341D8801322F0A4C
:101DF8006570099D92B22770023302349542F4D17E
:101E0800033189B2FFF7E8FC033034E63549344A38
:101E180009781278994209D00D2A08D82F48C15A52
:101E2800E1520233122BFAD12D4BFEE60B000020B3
:101E38002C2708AC5900E41901336052092BF7D15B
:101E48000E2A00D9F3E60F22254BEFE631492A4A3C
:101E58000978137800292AD00D2B28D827492C2453
:101E68000888822108AF3F1909017852244908AF30
:101E780008882F493F197852224908AF08882D4908
:101E88003F197852204908AF08882B493F197852E2
:101E98001E4908AF088829493F1978521C4908AFDC
:101EA800088827493C190133605213702EE7002235
:101EB800194908A80A50852109010A5017490A50EA
:101EC8000E2B00D922E70C4B0F321A701EE70122A5
:101ED80052421A80059B42E72C0800009C03002010
:101EE8009B0300209A0300200400002000007A448D
:101EF80002000020000000208D030020980300202D
:101F080096030020940300209203002090030020F1
:101F18008E0300208C0300204C08000054080000A9
:101F28000800002007000020AE0300200600002063
:101F380022080000240800002608000028080000E5
:101F48002A080000F8B5041E4AD0060000255836B5
:101F58003570FEF763FE0123A76960652370E560AD
:101F68002561A5826060A060AF4218D00335FEF7F6
:101F780029FE3800FFF736F8002809D0FA20013D7D
:101F88004000EDB2FEF750FE002DF0D1052305E02C
:101F98003800FFF755F804230028F7D123702500EF
:101FA80000230121626D38352177A362E36223861D
:101FB8002262626229702100206D4C316364A3643F
:101FC8000B80E2632264984206D0FFF783FA042369
:101FD800002800D005232B70012300203370F8BDA2
:101FE80008204042FBE70623002808D0012905D035
:101FF800022906D0002902D1037800E0037F1800E7
:1020080070473830F8E7F8B504000D00002825D0EF
:10201800FEF704FE0600012D23D0022D27D0002D47
:102028001CD1A569002D19D0FEF7CCFD2800FFF7BB
:10203800FBF907009620C000FEF7F6FD002F0BD134
:102048002800FEF7FDFFB84206D10423E0602370A4
:10205800A660FEF7B7FD08E0FEF7B4FD0820404291
:1020680004E000232577A36260620020F8BD256D97
:10207800002DF3D0FEF7A6FD2800FFF73FFB002850
:10208800EAD12300042238331A7060642664E0E73A
:10209800F7B5041E00D1D4E0030058331B78002B99
:1020A80000D1CEE0FEF7BAFDA76906006065002FF3
:1020B80000D1B7E02378042B00D0B0E0FA216068A3
:1020C8008900FEF7BBFD002800D1A5E03800666056
:1020D800FFF7DCF9002800D19EE03800FEF7D6FFB4
:1020E800051E00D08AE00223FF33E060A382BB898B
:1020F800834200D07BE0236901332361032B06D997
:102108003900380022222C310A3000F009F94E49F2
:10211800A068FEF793FD002803D000212000FFF7F8
:1021280072FF2378052B18D148496068FEF786FDB1
:10213800002812D06660FEF745FD3800FEF752FF12
:10214800002808D13800FEF77BFF002803D10423BC
:10215800E0602370A660FEF735FD236D0093002B29
:1021680043D0270038373B78042B1AD10098FFF763
:1021780077FA0190002858D10098FFF7B3FA0028A1
:102188000FD00098FFF7AAFA00280AD0019B022274
:1021980063642300FF324C3300981A80FFF7A8FAD3
:1021A800019D3B78052B13D12849E06BFEF746FDCE
:1021B80000280DD0E663FEF705FD0098FFF79EFAAC
:1021C800002803D104233B7060642664FEF7FAFC00
:1021D8003B78042B09D11C49206CFEF72FFD002801
:1021E80003D002212000FFF70EFF2800FEBD3900B2
:1021F8002061380022220A312C3086E702239D43D1
:102208006DB2073508D0E3680133E360042B03D9C6
:10221800052323700023237508256D4277E70825D9
:102228006D427EE708256D4297E7636C013363646E
:10223800042BB6D905233B70230000224C331A70B7
:10224800AFE708256D42D0E780EE3600881300001E
:1022580070B5041E1BD0032303809623DB00436064
:1022680096239B01836000230125036143618361F9
:10227800C36103624362FEF7F1FC63782573002BA8
:1022880001D0002070BDFEF72DFD6573F9E7082029
:102298004042F7E730B50D001400010083070BD06A
:1022A8000300032204E00D70013C0131134204D005
:1022B8000133002CF7D130BD0300032C22D9FF22B3
:1022C8002A40110289180A0489180F2C26D92209D4
:1022D8001201D218196059609960D960103393427D
:1022E800F8D10F22224094460C222240644609D09D
:1022F800624692089200D21802C39342FCD103248A
:10230800624614401A19002CD5D01D7001339A4228
:10231800D1D01D7001339A42F7D1CCE7A446E7E744
:10232800F0B5C6460D00160000B5032A0DD8040006
:10233800711E002E06D000230131EA5CE2540133FD
:102348008B42FAD180BCB846F0BD032402000A4390
:10235800210003001140144232D1320004000F2E34
:102368001ED91027BC462A003409013C2401A04686
:102378000419A44454685C6094689C60D468DC6068
:10238800146810321C6010336345F3D10F221C000F
:102398000C2310353240334045441600002BC7D07B
:1023A8006B5863500431531A032BF9D8032616408F
:1023B8009208013A920004350434AD18A418B7E71E
:1023C8000400711EB7E7C046F0B54F464646D646EC
:1023D8004502C0B5C30F470099460E1C6D0A3F0E53
:1023E8005AD0FF2F21D08023ED00DB041D430023AA
:1023F80098469A467F3F74027300640A1B0EF60FD4
:10240800002B1FD0FF2B42D080220020E400D204F2
:1024180014437F3B4A46FF1A434672400F2B00D9AC
:102428009CE071499B00CB589F46002D59D1082349
:102438009846063B74029A467300640A1B0EF60F10
:10244800002BDFD1002C3BD101234A464146724084
:1024580019430E2918D86548890041588F465346B4
:10246800022B00D1B9E0032B6ED04A462C00012B79
:1024780040D100200024C0052043D2071043E0BC0F
:10248800BA46B146A846F0BDFF200024F3E7002C69
:1024980020D10223FF3FD8E7002D05D10423984619
:1024A800033B00279A46A6E72800FDF781FF762719
:1024B800431F9D4000237F4298469A463F1A9AE759
:1024C8002000FDF775FF431F9C4076235B421B1AD3
:1024D80000209FE7032342461A4390460320FC331B
:1024E80098E70C239846093BFF279A4683E7032879
:1024F8002CD0320038007F30002847DD630704D035
:102508000F232340042B00D00434230103D53800C3
:10251800374B80301C40FE28B6DCA401640AC0B2E8
:10252800A9E780240022FF20E403A4E78023DB033B
:102538001D4201D01C420BD08024E4032C436402CA
:102548004A46FF20640A96E74E462C008023DB03A8
:102558001C4364023200FF20640A8CE76D016001AD
:1025680085422ED21B230024013F01262900640046
:102578006D00002901DB854201D32D1A3443013B4C
:10258800002BF3D16B1E9D412C43B3E703001A3394
:1025980000DA6EE7012321001B1A9E37D940BC40A0
:1025A8000B00611E8C412343590704D00F211940A9
:1025B800042900D00433590113D49B0100205C0A7C
:1025C80059E71A2301242D1ACFE7981E4342584190
:1025D800404232000024C0B24DE74A46FF200024A2
:1025E80049E70120002446E7342C0008742C000831
:1025F800FFFFFFF7F0B54646D6464F464402C0B542
:10260800C30F460098460D1C640A360E00D1CBE075
:10261800FF2E6ED08023E400DB041C430023994680
:102628009A467F3E6F026B007F0A1B0EED0F002B50
:102638006DD0FF2B00D1A6E07F3BF6184B460A2B46
:1026480000DD82E08023FF00DB041F4343466B402C
:1026580098464B460022022B0FDD494601238B404A
:10266800A621C9000B4200D06FE0902189000B42DF
:1026780000D0D3E08821194264D1200C2404240C12
:1026880021003B0C3F043F0C79435C4347435843CC
:10269800E4190B0C1B199F4202D9802252028018A0
:1026A80009041A04090C52189401611E8C411B0C70
:1026B800920E1B1814439B011C431B0100D5CDE04F
:1026C80030007F30002800DCAEE063070BD00F231A
:1026D80032002340042B06D00434230103D5803272
:1026E8001000684B1C40FE2866DCA3015B0AC0B2E0
:1026F8001EE0002C00D08BE008239946063B6F02B1
:102708009A466B007F0A1B0EED0F002B91D1002F0C
:1027180061D14A4601231A4391460A2A15DC4346E9
:102728006B4098464B460122022B96DC0020002382
:10273800C00518434346DD072843E0BCBA46B14606
:10274800A846F0BDA8463C0092465346022B33D01B
:10275800032B11D0012BE9D030008030721C0028E7
:1027680063DD6307B9D00F232340042BB4D1B4E74A
:102778000F2A78D0A8463C008023DB0323435B0262
:10278800FF205B0AD4E7FF36002F2FD102234A46E9
:1027980013430A2BD9DC42466A4090464A46002A2F
:1027A8000AD09946022258E7002C08D104239946FA
:1027B800033B00269A4635E7FF200023B8E72000B0
:1027C800FDF7F6FD7626431F9C4000237642994686
:1027D8009A46361A26E73800FDF7EAFD4B46361AC0
:1027E800763E0A2BB1DC053887402FE703234A469B
:1027F8001A4313000A2ABBDC42466A40904601226B
:102808009A40882113000322194200D135E799E73D
:102818000C239946093BFF269A4603E7002398466E
:102828008023FF20DB0383E7320003001A3300DA3A
:102838007CE79E320123210094401B1AD940621E76
:1028480094410C43630704D00F232340042B00D08A
:102858000434630111D50120002369E701236208CC
:102868001C40144378E78023DB031C4284D01F42BA
:1028780082D1A846FF203B435AE7A30100205B0A08
:1028880056E7C046FFFFFFF710B504000020002CF4
:102898000ED02000FDF78CFD03009E20C01A072BE8
:1028A80009DD082B2CD0083B9C406402640AC0B2A6
:1028B800C005204310BD042B16DD052B01D05A1F7F
:1028C8009440114A224061070AD00F21214004296F
:1028D80006D00432510103D59F200B49C01A0A4083
:1028E8009201540AC0B2E3E71A0021001B3291405A
:1028F8000A00511E8A410521C91ACC401443E0E759
:1029080064029620640AD3E7FFFFFFFB003162539D
:10291800C4F5A697B988DBEA7D4C1F2E43722110B7
:1029280087B6E5D4FACB98A93E0F5C6D86B7E4D597
:10293800427320113F0E5D6CFBCA99A8C5F4A79697
:10294800013063527C4D1E2FB889DAEB3D0C5F6E67
:10295800F9C89BAA84B5E6D7407122137E4F1C2D77
:10296800BA8BD8E9C7F6A59403326150BB8AD9E877
:102978007F4E1D2C02336051C6F7A495F8C99AAB57
:102988003C0D5E6F4170231285B4E7D67A4B182947
:10299800BE8FDCEDC3F2A1900736655439085B6A37
:1029A800FDCC9FAE80B1E2D344752617FCCD9EAF17
:1029B80038095A6B4574271681B0E3D2BF8EDDEC17
:1029C8007B4A192806376455C2F3A0914776251427
:1029D80083B2E1D0FECF9CAD3A0B586904356657F7
:1029E800C0F1A293BD8CDFEE79481B2AC1F0A392F7
:1029F8000534675678491A2BBC8DDEEF82B3E0D1D7
:102A0800467724153B0A5968FFCE9DAC0000058027
:102A18000F800A001B801E001400118033803600CE
:102A28003C00398028002D802780220063806600C2
:102A38006C00698078007D80778072005000558036
:102A48005F805A004B804E0044004180C380C6001E
:102A5800CC00C980D800DD80D780D200F000F58096
:102A6800FF80FA00EB80EE00E400E180A000A58082
:102A7800AF80AA00BB80BE00B400B18093809600EE
:102A88009C00998088008D808780820083818601E0
:102A98008C01898198019D8197819201B001B5814E
:102AA800BF81BA01AB81AE01A401A181E001E5813A
:102AB800EF81EA01FB81FE01F401F181D381D601A6
:102AC800DC01D981C801CD81C781C201400145819E
:102AD8004F814A015B815E01540151817381760106
:102AE8007C01798168016D816781620123812601FA
:102AF8002C01298138013D8137813201100115816E
:102B08001F811A010B810E01040101810383060351
:102B18000C03098318031D831783120330033583BD
:102B28003F833A032B832E032403218360036583A9
:102B38006F836A037B837E03740371835383560315
:102B48005C03598348034D8347834203C003C5830D
:102B5800CF83CA03DB83DE03D403D183F383F60375
:102B6800FC03F983E803ED83E783E203A383A60369
:102B7800AC03A983B803BD83B783B20390039583DD
:102B88009F839A038B838E038403818380028582CB
:102B98008F828A029B829E0294029182B382B6023D
:102BA800BC02B982A802AD82A782A202E382E60231
:102BB800EC02E982F802FD82F782F202D002D582A5
:102BC800DF82DA02CB82CE02C402C182438246028D
:102BD8004C02498258025D82578252027002758205
:102BE8007F827A026B826E026402618220022582F1
:102BF8002F822A023B823E0234023182138216025D
:102C08001C02198208020D8207820202B004000029
:102C180060090000C012000080250000004B000081
:102C28000096000000E1000000C2010064250008D1
:102C3800902400087A240008F62400087A24000862
:102C48002A2500087A240008F624000890240008A1
:102C5800902400082A250008F624000866240008A5
:102C6800662400086624000834250008902400081B
:102C7800902400087A240008D22500087A24000845
:102C88002A2500087A240008D22500089024000884
:102C9800902400082A250008D22500086624000888
:082CA800662400086624000800
:0C2CB000B400A500A00001040100000019
:0400000508000F459B
:00000001FF
