:020000040800F2
:1000000000200020C90F0008C50F0008C50F000818
:1000100000000000000000000000000000000000E0
:10002000000000000000000000000000C50F0008F4
:100030000000000000000000C50F0008CD0B000804
:10004000C50F0008C50F0008C50F0008C50F000840
:10005000C50F0008C50F0008C50F0008C50F000830
:1000600000000000C50F0008C50F0008C50F0008FC
:10007000C50F0008C50F0008C50F0008C50F000810
:10008000C50F00080000000000000000C50F0008B8
:1000900000000000C50F0008C50F0008C50F0008CC
:1000A000C50F0008C50F0008C50F0008690D00083E
:0800B000890F0008C50F0008CC
:1000B80002B4714649084900095C49008E4402BCF3
:1000C8007047C046002243088B4274D303098B4211
:1000D8005FD3030A8B4244D3030B8B4228D3030C10
:1000E8008B420DD3FF22090212BA030C8B4202D3B2
:1000F8001212090265D0030B8B4219D300E0090ADA
:10010800C30B8B4201D3CB03C01A5241830B8B42E2
:1001180001D38B03C01A5241430B8B4201D34B03CB
:10012800C01A5241030B8B4201D30B03C01A524130
:10013800C30A8B4201D3CB02C01A5241830A8B42B5
:1001480001D38B02C01A5241430A8B4201D34B029E
:10015800C01A5241030A8B4201D30B02C01A524102
:10016800CDD2C3098B4201D3CB01C01A52418309B6
:100178008B4201D38B01C01A524143098B4201D3F0
:100188004B01C01A524103098B4201D30B01C01A1B
:100198005241C3088B4201D3CB00C01A5241830895
:1001A8008B4201D38B00C01A524143088B4201D3C2
:1001B8004B00C01A5241411A00D201465241104622
:1001C8007047FFE701B5002000F0F0F802BDC04617
:1001D8000029F7D076E7704703460B437FD4002207
:1001E80043088B4274D303098B425FD3030A8B42C3
:1001F80044D3030B8B4228D3030C8B420DD3FF222D
:10020800090212BA030C8B4202D31212090265D0FA
:10021800030B8B4219D300E0090AC30B8B4201D3AD
:10022800CB03C01A5241830B8B4201D38B03C01AF4
:100238005241430B8B4201D34B03C01A5241030B6B
:100248008B4201D30B03C01A5241C30A8B4201D31C
:10025800CB02C01A5241830A8B4201D38B02C01AC7
:100268005241430A8B4201D34B02C01A5241030A3E
:100278008B4201D30B02C01A5241CDD2C3098B4223
:1002880001D3CB01C01A524183098B4201D38B01A0
:10029800C01A524143098B4201D34B01C01A524143
:1002A80003098B4201D30B01C01A5241C3088B4288
:1002B80001D3CB00C01A524183088B4201D38B0073
:1002C800C01A524143088B4201D34B00C01A524115
:1002D800411A00D201465241104670475DE0CA0FEC
:1002E80000D04942031000D34042534000229C46AC
:1002F80003098B422DD3030A8B4212D3FC228901B6
:1003080012BA030A8B420CD3890192118B4208D38B
:10031800890192118B4204D389013AD0921100E0ED
:100328008909C3098B4201D3CB01C01A5241830901
:100338008B4201D38B01C01A524143098B4201D32E
:100348004B01C01A524103098B4201D30B01C01A59
:100358005241C3088B4201D3CB00C01A52418308D3
:100368008B4201D38B00C01A5241D9D243088B4229
:1003780001D34B00C01A5241411A00D201466346CC
:1003880052415B10104601D34042002B00D5494230
:10039800704763465B1000D3404201B5002000F06F
:1003A80005F802BD0029F8D016E770477047C04627
:1003B800F0B587B000F0EAFB00F086F800F0B6F977
:1003C80000F0C2FA00F0C0FB394801F0D9FD394D00
:1003D8000027280001F05CFA374B384C3848A361F5
:1003E800606300F011FC200001F05AFC00F0F2FB01
:1003F800019000F0EFFB00F0EDFB0390200001F00E
:10040800D7FC2F4B1800029301F002F9002204AB2D
:10041800DA8000F0B9FD002839D1AB88834217D0C3
:100428000521286800F0E6FB002811D004AB9E1DCA
:10043800330028002049029A01F0D0FA3388002BB3
:1004480006D0022000F0CCFB31881E4800F00EFDDB
:100458000021200001F06BFC01210600200001F0C2
:1004680066FC6421052E03D0052801D09131FF31A7
:10047800019800F0BFFB002806D0002F12D107001A
:1004880000F002FA039B019300F078FBB3E700F059
:1004980085FD060000F09EFB31000200280001F0F7
:1004A8007DFAB6E700F0F5F9039B00270193EBE727
:1004B800BC000020240100204C030020E4000020A0
:1004C800040000204B0100208022284B52001968AC
:1004D80010B50A4380211A60254AC90018680842E5
:1004E80036D1013A002AF9D1012040421FE080218B
:1004F80010684900014311601A681E490A401A60D1
:100508008022920419681142FCD11B4ADA608022C9
:10051800196852040A4380211A60154A8904186828
:10052800084205D1013A002AF9D1DDE7002010BDC3
:10053800072299689143053A0A439A6010220C4BA6
:100548000E4908681042F1D1013B002BF9D1CBE7E5
:10055800072404210A4A1068A04301431160116866
:1005680021400429C3D00820BFE7C046001002403C
:10057800A0860100FFFFFFFE0208001008100240DD
:1005880000200240802210B5074B084C5202216916
:1005980008001040114200D110BD013B002BF6D1DC
:1005A80001204042F8E7C046A08601000020024032
:1005B80070B50600FFF7E6FF00282FD1194C6369D4
:1005C800834203DA184BA360184BA360FC25AD00E7
:1005D80025616069164BF600184002233043034337
:1005E8006361802362695B0213436361FFF7CAFF9B
:1005F8006369104A1340636100280CD123691A000B
:100608002A402B4201D022610838802362691B06E8
:100618001343636170BD01204042F6E70120404268
:10062800F8E7C0460020024023016745AB89EFCDBB
:1006380004E0FFFF05E0FFFFF7B505000091019218
:10064800430737D1FFF79EFF002836D11C4C63695A
:10065800834203DA1B4BA3601B4BA360FC260127D4
:10066800B600266163693B436361009B2B60019B75
:100678006B60FFF787FF6369BB436361002817D18D
:1006880023691A003240334206D12B68009A9342FC
:1006980004D00820404205E02261FAE76B68019A1D
:1006A8009342F6D1802362691B0613436361FEBD42
:1006B8000120EFE704204042F9E70120FBE7C046AC
:1006C8000020024023016745AB89EFCDF8B507004C
:1006D8001F200E0015001C00FFF76AFF002819D123
:1006E8003A000D490D48FFF7A7FF002812D1320044
:1006F80009490B48FFF7A0FF00280BD12A0006493B
:100708000848FFF799FF002804D12200024906484B
:10071800FFF792FFF8BDC0463412ADDE00F80008BE
:1007280008F8000810F8000818F8000803214F4BD3
:1007380030B55A6B0F200A435A635B6BA023DB0565
:100748001A6882431A60052218680243F0201A606A
:100758005A688A435A605A698A435A611A688243B6
:100768001A60A0221968114319600C215C688C4337
:100778005C609C6884439C609C6822439A60DA6849
:100788008243DA604022D8680243DA601A6A38483D
:1007980002401A628822186A520102431A621A68D1
:1007A800344802401A608022186852000243102020
:1007B8001A605A6882435A605A6982435A611A68B1
:1007C8002D4802401A60A0221C68920414431C6041
:1007D800C0245D6864012C435C609C6804409C6094
:1007E8009C6822439A60DA68C0240240DA60A0223A
:1007F800D86852040243DA605A6A204802405A62B2
:10080800CC22586AD20202435A621D4B1A688A43A4
:100818001A60042219680A4302211A605A688A4336
:100828005A605A698A435A611A6816490A401A6016
:10083800A02218681202104318605868A043586034
:10084800986808409860986802439A60DA680A4095
:10085800DA608022D968D2010A43DA601A6A120281
:10086800120A1A621A6A1A6230BDC04600100240A3
:10087800FF00FFFFFFFCFFFFFFFF3FFCFF0FF0FF44
:1008880000040050FF0FFFFFA0231022DB059A6130
:100898007047A0238022DB0552039A61704700004D
:1008A8000222014B9A617047000400508022024BDB
:1008B80092029A617047C04600040050A023C022EB
:1008C800DB0592029A610122104200D09A6102224D
:1008D800104200D09A6170471022074B0020996996
:1008E800114208D0D96903380A43DA61802259686D
:1008F800D2010A435A6070470058004070B506009C
:1009080000F068F9012504003221200000F072F996
:10091800002802D00120404270BD084B1B681E42CF
:10092800FAD100F057F9031B05485843E841054B35
:100938009842E9D800F022F9E6E7C0461858004086
:10094800CDCCCCCC9999991980220D4BD203D96B77
:100958001143D963D96BD96A0A43DA62DA6A094959
:100968000A40DA620122084B196891431960074965
:1009780019610021196019680A431A607047C04656
:1009880000100240FFFFBFFF005800401F193290BF
:10099800F8B5A024E4052368114E8027334023606E
:1009A800802309252268DB03134323603F010120CC
:1009B800A76100F015F98023013D1B050120A36103
:1009C800EDB200F00DF900F0D9F8002DEFD1236851
:1009D80033402360802322681B0413432360F8BD3F
:1009E800FFFF3FFF012370B51D4C5B42E361A36924
:1009F80006000D001B0404D5FFF7CAFF0A2000F00B
:100A0800EFF86068174B76001840174B30430343E4
:100A18006360802362689B01134302206360FFF7D1
:100A28006DFF002802D00320404270BDFFF754FF3D
:100A38000028F8D12B0AA3620230FFF75FFF0028D5
:100A4800F1D1FFF749FF0028EDD1EDB2A5622030C2
:100A5800FFF754FF2023E2691343E361E5E7C0464B
:100A68000058004000F800FD00000202F7B50E0033
:100A78001D000192002A5DD0002B5BD001272E4C6F
:100A88007F42E7614200636800922C4A02201340CB
:100A9800009A13432A4A13438022636063689201D1
:100AA80013436360FFF72AFF002802D00320404267
:100AB8003FE0FFF711FF0028F8D1330AA3620230A4
:100AC800FFF71CFF0028F1D1FFF706FF0028EDD142
:100AD800F6B2A6622030FFF711FF2023E269134324
:100AE800E3610028E2D1143000F07AF8E761636826
:100AF800124A019E13402A041343009A751913439E
:100B0800104A134380226360636892011343636051
:100B18000420FFF7F3FE0028C8D1636A337001365A
:100B2800AE42F5D12030FFF7E9FE2023E2691343F6
:100B3800E361FEBD0420BAE70058004000F800FD5C
:100B48000000020200040002084B094A1A60094A20
:100B58001A6004225A60FA2292009A600322D96825
:100B68001142FCD1044A1A607047C0460030004068
:100B7800CCCC000055550000AAAA0000014B024A3F
:100B88001A60704700300040AAAA0000C0210A4835
:100B98000A4B0B4A4360136A09061B021B0A0B43E4
:100BA80013620023836007330360136A1B021B0A66
:100BB800194311627047C04610E000E0FFF90000D9
:100BC80000ED00E0024A1368013313607047C04625
:100BD800B8030020014B18687047C046B8030020CE
:100BE800034A116813685B1A8342FBD37047C046F7
:100BF800B8030020034B1B681B1A00208B4240419E
:100C08007047C046B8030020014B18607047C046C3
:100C18001804002080220E4BD201196CC6200A430A
:100C28001A6400221B6C0B490B4B80001A60D960B8
:100C380080215A609A602D321A60084A09061358B2
:100C48001B021B0A0B43135080231B0513607047BC
:100C5800001002400B1A00000038014000E100E0DB
:100C6800024B034ADB8FD3877047C046D40300206A
:100C7800D6030020F0B587B00C00019000284FD0B3
:100C8800FFF70EFE0023FA2203935200039B9342C0
:100C98000ED30025234FA54225D100254026FB6908
:100CA800334225D101352B051FD1FFF767FFF6E742
:100CB800039B01330393E9E7013633050AD1FFF7B4
:100CC8005DFF8022FB691342F6D0019B5B5D013515
:100CD800BB62DFE7144B9E42F3D1ACB2FFF7E6FDEF
:100CE800200007B0F0BD0026EBE70F4B9D42D6D1A0
:100CF8000023FA2504936D00049BAB4209D3FFF748
:100D0800D5FD00230593059BAB4206D3FFF7A8FF4B
:100D1800E6E7049B01330493EEE7059B0133F1E713
:100D2800019CDDE700380140A186010010B50A4C9E
:100D3800E3699B0607D5094B616A1868002802D049
:100D4800C9B200F019FD0E23E2691A4202D0226AE4
:100D58001343236210BDC046003801401804002028
:100D680010B5FFF7E3FF10BD80220E4B9202D96B3E
:100D7800C7200A43DA630022DB6B0B490B4B800068
:100D88001A60D9605A609A602D321A60084BD232C4
:100D980019589143BF3A0A431A50802252051A60E3
:100DA8007047C046001002400B1A00000044004083
:100DB80000E100E0014A138A53827047BE03002015
:100DC80070B51400962203000D00D20190420DD098
:100DD80021D896225201904208D019D89622D200E2
:100DE800904203D096221201934233D1022D31D87A
:100DF800621E012A2ED8194A580819008018FFF7D0
:100E080061F9012D12D02C21022D10D114490EE0C8
:100E180096229201E8E7E12212029042E6D0E1220E
:100E280052029042E2D096221202DDE70D49023CBE
:100E380063425C4101220C4B64031D6895431D60AD
:100E4800D8605C6000240A439C601A60FFF7B2FF18
:100E5800200070BD04204042FBE7C0460090D0034C
:100E68002C1600002C14000000440040F0B50400CB
:100E78000D0087B0002832D0FFF79CFFFA26002328
:100E8800B6000293029BB3422BD3FFF709FD002360
:100E9800254F3D800393039BB34226D363190193E7
:100EA800019B224D9C4230D100244026EB693342FD
:100EB8002DD00023FA2404936400049BA3422CD36E
:100EC800FFF7F4FC00230593059BA34229D30E23C7
:100ED8002A6A13432B6200233B80FFF76BFF07B09E
:100EE800F0BD029B01330293CCE7039B0133D1E7AA
:100EF8000136330501D1FFF741FE8022EB69134229
:100F0800F6D023780134AB62CAE70026F5E701344E
:100F18002305CBD1FFF732FEC8E7049B01330493C6
:100F2800CBE7059B0133CEE7BC030020004400401B
:100F3800104A10B5D3699B0607D50F4B546A198818
:100F480000290AD01988013919800E23D16919425C
:100F580002D0116A0B43136210BD0F2007490B8A98
:100F680001330340488A9842EFD0088A0B820C5418
:100F7800EBE7C04600440040BC030020BE0300204D
:100F880010B5FFF7D5FF10BD034B188A5B8AC01A4E
:100F98000F2318407047C046BE030020064B0020B0
:100FA800598A1A8A914206D00F215A8A985C5A8A1D
:100FB80001320A405A827047BE030020FEE7000053
:100FC80010B5094A094B0A498B4207D30021094B3E
:100FD800094A934205D3FFF7EBF9FEE701CA01C3BB
:100FE800F2E702C3F5E7C04620240008000000200D
:100FF8000400002004000020200400200378054A93
:10100800DB43DBB24178D35C4B40DBB2D05CC0B28F
:101018007047C0460021000802004E321378042BA6
:1010280003D904230372080070470133DBB213703D
:10103800052BF8D1F5E773B5032504004D4301AE40
:10104800451923783000337063787370FFF7D6FF43
:10105800A378984204D10334AC42F2D1002076BD83
:1010680002204042FBE7000010B504008CB00028C5
:1010780023D06C22002100F0A5FF002364202372F6
:10108800FFF7AEFD0E4930236A466B20FFF7EEFCF2
:10109800011E04D02000FFF7BFFF0CB010BD1021C7
:1010A8006846FFF7C8FF002802D002214942F1E74D
:1010B800012323724E342080EFE704204042ECE7FE
:1010C80014D0000070B5051E1CD0037A012B01D086
:1010D800042B1AD121216B20FFF784FC041E06D0B3
:1010E80001002800FFF798FF0400200070BD32209F
:1010F800FFF776FD02232B72FFF76CFD28604E3553
:101108002C80F2E704246442EFE70524FBE70000A3
:10111800F0B5040097B0002800D1BCE1037A9A1E0C
:10112800012A00D9BAE1022B08D1FA210068490046
:10113800FFF760FD002801D0032323720AADC349DD
:1011480003232A006B20FFF791FC011E06D0200024
:10115800FFF762FF0500280017B0F0BD2B880FAF1E
:101168003B803800FFF74AFFAB786E78984202D090
:1011780002214942EBE7012E00D091E1C0211B2357
:1011880089003A006B20FFF771FC011EDFD10921AD
:101198003800FFF750FF0028EAD120001B22390051
:1011A800513000F055FFAA490F236B200BAAFFF717
:1011B8005DFC011ECBD105210BA8FFF73CFF051EE6
:1011C800D6D13B880AAA0393BB89A248DBBA00930D
:1011D80023239B181A785B781B02134309937B8A95
:1011E8000AAADBBA049329239B181A785B781B0296
:1011F8001343DBBA05933B8B0293039B1A18531EC8
:101208009A41009B0792944A99184B1E994108915C
:101218001100059B9B185A1E9341049A5218511E9F
:101228008A411A40029B01921E18731E9E418B4AE6
:10123800039BF6B2934200D114E117225BBA9C4695
:101248000AABD218137852780AA912021A431D233E
:101258005B1819785B78F8881B020B435BBA52BAA3
:1012680040BA06932100079F0A318F77089F019B98
:10127800CF7727000B37FB7763460137FE7763810B
:10128800069B4A808880029A7448CB800023824259
:1012980000D053BA8B83724A009B0020934203D03C
:1012A8000A211800FEF798FF019BE083002B02D16A
:1012B800019B04930593049B694A6384059B002062
:1012C800A384009B934204D0099B1421D8BAFEF74B
:1012D80083FF0BA90B88614A2084934200D1C6E0A2
:1012E8000AAA107AD2790002104342BA04920D2257
:1012F800CF8889890AA849BA8C461218107852787A
:101308005BBA120202437FBA52BA21004B82049B95
:10131800CF828B8263464B8300238B8323000A830F
:1013280050331A780A31002A45D0039B4B48834230
:1013380018D123002C339B7F002B13D0A38D6381FE
:10134800E38D4B80238E8B80638ECB80A38E0B81A5
:10135800E38E4B81238F8B81638FCB81A38F0B828D
:1013680001238B77009B3E4883420CD123002C330A
:10137800DB7F002B07D0A31CDB8F8B82231DDB8F29
:10138800CB820123CB77019B002B0FD123002D3378
:10139800DB7F002B0AD0A31DDB8F01200B832300EA
:1013A8000833DB8F4B8323000B33D877029B2B4802
:1013B800834262D01600230028331B78002B0CD000
:1013C8006289002A09D1A289002A06D1E289002A65
:1013D80003D1238A5A1E9341DBB2220029321278A4
:1013E800002A09D01E27E05F002852D12020225E63
:1013F800501E82411343DBB222002A321278002A9F
:1014080009D02220225E002A4CD12420225E501EC0
:1014180082411343DBB2002E02D0E28C002A01D1B4
:10142800002B08D0200022222C3000F011FE2300CF
:10143800012250331A70230001224F331A70FFF72C
:10144800C9FB002360604E34237084E6020200006A
:10145800160300000100FFFF0180FFFFFFFF0000EF
:10146800FF7F0000AC462A0028000695FAE6002314
:101478001F001A009C46049347E7200023002E30E3
:10148800C67F0C33002E96D0408B88830120D877F6
:1014980090E71300B0E704256D425CE60525FBE7FD
:1014A8000725F9E7002EBDD03300B6E770B5041E56
:1014B80025D014496B20FFF795FAFFF78BFB02261E
:1014C800050096212800C900FFF794FB00280AD0E0
:1014D8002000FFF7C9FD002804D0042323724E34EE
:1014E8000133237070BDFFF775FB431B0648584353
:1014F800F041064B9842E4D8FFF740FBE1E70420AF
:101508004042EFE704D30000D578E9266E12830045
:1015180037B5002801D100203EBD037A023BDBB27B
:10152800012BF8D801AD03232A006B200949FFF7E6
:101538009DFA0028EFD168462B886C780380FFF766
:101548005DFDAB78C31A601E5A4253414242504176
:101558001840E1E702020000020031321378042B40
:1015680004D9042230300270080070470133DBB21E
:101578001370052BF8D1F4E710B5041E0ED0B8226D
:10158800002100F01FFDFFF745FB23000222303346
:101598001A70FFF71FFBA062002010BD0420404214
:1015A800FBE7000037B5041E2AD0030030331B7850
:1015B800002B28D0154B6D460093802306215B0035
:1015C8006846AB8000F0EAF80821E8806846FFF733
:1015D80051FB082805D0082120004942FFF7BCFF2D
:1015E8003EBD2300012235331A70FFF7F3FA2300BA
:1015F800E062002032331870236801332360EFE77C
:1016080004204042ECE70520FBE7C04662030003E4
:10161800F7B5041E00D1AAE0FFF7DCFA2300303347
:101628001A780600022A01D101321A7025003535D0
:101638002B78002B13D04F49E06AFFF7DBFA061E20
:1016480021D022000023012132322B701370A368AD
:101658000133A36020004942FFF77EFF12E0FA2120
:10166800A06A8900FFF7C6FA002805D12B788342C3
:10167800E1D10720404205E02000A662FFF792FF73
:101688000028F3D0FEBD2B788342F2D023003233FA
:1016980001931B78022BECD9220038321278571D9F
:1016A8000092402F07D9019B28701870E368013316
:1016B800E3600821CEE7BB42DBD328702500009BFE
:1016C8003635D91C280000F069F8EB195A1E127833
:1016D800023B1B7812021343984206D0019B022159
:1016E8001E70E3680133E360B4E72B78012B01D067
:1016F800622B04D1230037331B78032B04D023003B
:10170800002232331A70D4E7200063683A000133AC
:1017180063602900763000F09BFC009A0023012AC0
:1017280007D9230039331A785B781B0213435BBA55
:101738009BB2012225002382A2743435002B0ED0DF
:1017480014222100A01800F083FC01232B70230031
:1017580000203133187080235B00638692E72B7872
:10176800002BF4D0A38C2382002BF0D0E8E70420D0
:1017780080E7C046DC05000000280ED003003533A2
:101788001B78002B09D00200323213783F2B04D883
:10179800C01836300133017013707047F7B5061E54
:1017A800019106D00024FF252348019AA3B29A424A
:1017B80000D8FEBD335D214958400200A8432A40A5
:1017C8001202000A10431E4B1E4A8C460240184063
:1017D80000091D4B1201024313400A4092089B0066
:1017E80013431A0019491A480A4003405B08570076
:1017F8001F433A0A174B52009B5A3F027B401A007C
:10180800AB432A409BB212021B0A13430C4F0D4AEA
:1018180001341A403B40674612011B0913430A4A28
:101828001A403B4092009B08134319401840490056
:1018380040080843B9E7C046FFFF0000CCCCFFFFD3
:10184800F0F0FFFF0F0F0000333300005555000084
:10185800AAAAFFFF0022000870B50C000500FFF7D8
:101868009DFF28552D19000A02346870A0B270BD7A
:1018780010B5064B82701B78037080235B420B43C4
:1018880043700321FFF7E8FF10BDC04602000020A7
:1018980070B5002851D08A220021920000F092FBF6
:1018A800304B31491B688B4206D1304B1B685A1E9E
:1018B800F62A01D82E4A13702E4B2F481B688B42EC
:1018C8001AD12E4B1A68531C16D096240523E4010E
:1018D800A24210D032D89624033B2401A2420AD057
:1018E800962401336401A24205D096240133E40012
:1018F800A24200D1033B0370214B224C1B688B4250
:1019080004D1214B1B68022B00D823701F4B204D9C
:101918001B688B4205D11F4B1B685A1E012A00D831
:101928002B700378013BDBB2072B18D81A4A9B00AF
:1019380098582A782178FFF743FA70BDE1240723E5
:101948002402A242D7D0E12401336402A242D2D0B9
:101958009624043B2402A242CDD10233CBE7962041
:101968008001E6E700F800083412ADDE04F800084C
:101978000200002008F80008010000200CF8000808
:1019880010F800081E04002014F8000818F80008D1
:10199800000000201CF800080024000870B50400AE
:1019A8000E001500002817D08388002B11D00521C0
:1019B8000068FFF71FF900280BD00023A380A3714C
:1019C800A3881F2B03D8E2180133D671A3802560A2
:1019D80002E0A379002BF3D070BD0000FFB5FFB083
:1019E80004000E0015000193002875D0002973D05B
:1019F800002B71D00023019A13808188052968D9AA
:101A0800A14FC2793B789A4263D1023989B2073033
:101A1800FFF7C4FEA18863189A795B791202134311
:101A2800984256D1237A0293062B00D06DE00729FD
:101A38004FD92500A07A627A237B0002E17A10430D
:101A48001B0240BA0B4380B25BBAF038267B61892F
:101A58009BB22735032850D8FEF72AFB0240464A96
:101A6800581EF62807D9032206212800FFF700FF91
:101A7800019B18802DE03B70230038780833D87715
:101A88000620203318705A706185010020001E71ED
:101A98002730FFF7E1FE019B188038787B4F3B78B1
:101AA800013BDBB2072B2AD8794A9B009958794E1B
:101AB800794D33782A78FEF709FE3B78013BDBB293
:101AC800072B1FD8724A9B00985832782978FFF75D
:101AD80077F90023A380A3717FB0FFBD581E0728A4
:101AE800C1D86A480370C7E76B48022BFAD9BAE72E
:101AF800581E0128B7D86748F4E70222B4E79621B0
:101B08008901D4E796208001DFE7029B0122033B8D
:101B1800012B1BD8237BE27A1B0213436A465BBA6C
:101B28009382938A03220493013BF42B0ED8A37A61
:101B3800627A1B0213435BBA9BB20393F42B04D85B
:101B4800049A9B18013BF42B04D902222000029925
:101B580027308BE7F52207AF00213800520000F04C
:101B680031FA73893B80B3897B80F389BB80338AE0
:101B7800FB80F38B3B81338C7B81738CBB81B38C73
:101B8800FB81F38C3B822B1E05D02A8A434B002A0B
:101B980000D01A801B8807AF7B82327A39AB1A8053
:101BA80033004E331A78CE2306A95A523100330037
:101BB8000A310B33CA7FDB7F52009B001A438B7FAD
:101BC800134332000C32D27FD20013433AAA138057
:101BD800D22306AA9B18002D4ED02A003032127844
:101BE80006A91A802A683BAB1A80D6236A685A521B
:101BF800AA683CABAD891A80DA2306AA9D52224B0B
:101C0800FA211D78F0235B00FD52204B70681A788A
:101C1800F1235B00FA52204B89001A78F2235B000B
:101C2800FA521C4B1A78F3235B00FA52FEF74AFA71
:101C3800F4235B00F852059B029A590023000833ED
:101C48002000DD7720331A7000225970039B2A3058
:101C58005B00FB181D8801322E0A4570049D92B264
:101C68000670023302309542F4D12000033189B264
:101C78002730FFF7F1FDFBE6012252421A803CAB08
:101C88003B951D80B8E7C0460200002001000020F7
:101C980000240008000000201E0400201C0400206E
:101CA800F8B5041E40D0060000253C363570FEF716
:101CB80091FF0123A769A0632370E5602561A582D0
:101CC8006060A060AF4218D00335FEF757FF3800B8
:101CD800FFF7CAF9002809D0FA20013D4000EDB20B
:101CE800FEF77EFF002DF0D1052305E03800FFF751
:101CF800E9F904230028F7D123700123237700236F
:101D0800606BA362E3622386A36B2362636200288D
:101D180006D0FFF731FC0423002800D005232377E1
:101D2800012300203370F8BD08204042FBE706235A
:101D3800002803D0002903D0012903D018007047D8
:101D48000378FBE7037FF9E7F8B504000D000028E6
:101D580006D0FEF73FFF0600002D04D0012D21D04C
:101D680008204042F8BDA569002DF9D0FEF706FF0E
:101D78002800FFF79BFB07009620C000FEF730FF06
:101D8800002F0CD12800FFF79DF9B84207D1042392
:101D9800E0602370A660FEF7F1FE0020E2E7FEF7A0
:101DA800EDFEDDE700232577A3626062F5E700001A
:101DB800F8B5041E00D1DCE003003C331B78002B8F
:101DC80000D1D6E0FEF706FFA6690700A063002E43
:101DD80000D1AEE02378042B00D0A7E0FA21606898
:101DE8008900FEF707FF002800D19CE030006760FB
:101DF800FFF78EFB002800D195E03000FFF788F947
:101E0800051E00D081E00223FF33E060A382B3897E
:101E1800834200D072E0236901332361032B06D982
:101E28003100300022222C310A3000F011F95249D9
:101E3800A068FEF7DFFE002803D000212000FFF78E
:101E480083FF2378052B18D14C496068FEF7D2FE32
:101E5800002812D06760FEF791FE3000FFF704F902
:101E6800002808D13000FFF72DF9002803D10423FA
:101E7800E0602370A760FEF781FE666B002E3BD002
:101E8800237F042B14D13000FFF7C2FB002864D154
:101E9800B37C83420CD00223FF33A0622386338AAB
:101EA800834251D1E36A0133E362032B44D800250E
:101EB800237F052B13D13149206AFEF79BFE0028AA
:101EC8000DD02762FEF75AFE3000FFF755FB0028B9
:101ED80003D10423A06223776762FEF74FFE237FB6
:101EE800042B09D12449606AFEF784FE002803D038
:101EF80001212000FFF728FF2800F8BD31002061EC
:101F0800300022220A312C308FE702239D436DB224
:101F1800073508D0E3680133E360042B03D90523B0
:101F280023700023237508256D4280E708256D423C
:101F380087E708256D42A0E733003200143323CB2E
:101F480023C203CB03C2B2E733003200E06214338A
:101F580023CA23C303CA03C3A9E7A36A0133A3623D
:101F6800042BA5D9052323772300002230331A70C8
:101F78009EE708256D42BFE780EE36008813000013
:101F880070B5041E1AD09623002001259B016360BA
:101F9800A360208020616061A061E06120626062CE
:101FA800FEF78CFCFEF736FE63782573002B01D014
:101FB800002070BDFEF7D8FE6573F9E7082040429F
:101FC800F7E7000030B50D001400010083070BD0BF
:101FD8000300032204E00D70013C0131134204D0D8
:101FE8000133002CF7D130BD0300032C22D9FF2286
:101FF8002A40110289180A0489180F2C26D92209A7
:102008001201D218196059609960D960103393424F
:10201800F8D10F22224094460C222240644609D06F
:10202800624692089200D21802C39342FCD103245C
:10203800624614401A19002CD5D01D7001339A42FB
:10204800D1D01D7001339A42F7D1CCE7A446E7E717
:10205800F0B5C6460D00160000B5032A0DD80400D9
:10206800711E002E06D000230131EA5CE2540133D0
:102078008B42FAD180BCB846F0BD032402000A4363
:10208800210003001140144232D1320004000F2E07
:102098001ED91027BC462A003409013C2401A04659
:1020A8000419A44454685C6094689C60D468DC603B
:1020B800146810321C6010336345F3D10F221C00E2
:1020C8000C2310353240334045441600002BC7D04E
:1020D8006B5863500431531A032BF9D80326164062
:1020E8009208013A920004350434AD18A418B7E7F1
:1020F8000400711EB7E7C04600316253C4F5A697C5
:10210800B988DBEA7D4C1F2E4372211087B6E5D4CF
:10211800FACB98A93E0F5C6D86B7E4D542732011BF
:102128003F0E5D6CFBCA99A8C5F4A79601306352AF
:102138007C4D1E2FB889DAEB3D0C5F6EF9C89BAA5F
:1021480084B5E6D7407122137E4F1C2DBA8BD8E98F
:10215800C7F6A59403326150BB8AD9E87F4E1D2C7F
:1021680002336051C6F7A495F8C99AAB3C0D5E6F6F
:102178004170231285B4E7D67A4B1829BE8FDCED5F
:10218800C3F2A1900736655439085B6AFDCC9FAE4F
:1021980080B1E2D344752617FCCD9EAF38095A6B3F
:1021A8004574271681B0E3D2BF8EDDEC7B4A19282F
:1021B80006376455C2F3A0914776251483B2E1D05F
:1021C800FECF9CAD3A0B586904356657C0F1A2930F
:1021D800BD8CDFEE79481B2AC1F0A39205346756FF
:1021E80078491A2BBC8DDEEF82B3E0D146772415EF
:1021F8003B0A5968FFCE9DAC000005800F800A009D
:102208001B801E0014001180338036003C0039808A
:1022180028002D8027802200638066006C0069807A
:1022280078007D8077807200500055805F805A006A
:102238004B804E0044004180C380C600CC00C9805A
:10224800D800DD80D780D200F000F580FF80FA004A
:10225800EB80EE00E400E180A000A580AF80AA003A
:10226800BB80BE00B400B180938096009C0099802A
:1022780088008D8087808200838186018C01898116
:1022880098019D8197819201B001B581BF81BA0102
:10229800AB81AE01A401A181E001E581EF81EA01F2
:1022A800FB81FE01F401F181D381D601DC01D981E2
:1022B800C801CD81C781C201400145814F814A01D2
:1022C8005B815E0154015181738176017C017981C2
:1022D80068016D8167816201238126012C012981B2
:1022E80038013D8137813201100115811F811A01A2
:1022F8000B810E0104010181038306030C0309838A
:1023080018031D8317831203300335833F833A0371
:102318002B832E0324032183600365836F836A0361
:102328007B837E0374037183538356035C03598351
:1023380048034D8347834203C003C583CF83CA0341
:10234800DB83DE03D403D183F383F603FC03F98331
:10235800E803ED83E783E203A383A603AC03A98321
:10236800B803BD83B783B203900395839F839A0311
:102378008B838E0384038183800285828F828A0205
:102388009B829E0294029182B382B602BC02B982F9
:10239800A802AD82A782A202E382E602EC02E982E9
:1023A800F802FD82F782F202D002D582DF82DA02D9
:1023B800CB82CE02C402C182438246024C024982C9
:1023C80058025D8257825202700275827F827A02B9
:1023D8006B826E0264026182200225822F822A02A9
:1023E8003B823E0234023182138216021C02198299
:1023F80008020D8207820202B00400006009000092
:10240800C012000080250000004B0000009600006C
:0824180000E1000000C2010018
:0424200001040100B2
:0400000508000FC917
:00000001FF
